:1000000079C0000094C0000092C0000090C00000C1
:100010008EC000008CC000008AC0000088C00000B4
:1000200086C0000084C0000082C0000080C00000C4
:100030007EC000007CC000007AC0000078C00000D4
:10004000CEC0000074C0000072C0000070C000008C
:100050006EC000006CC000006AC0000068C00000F4
:1000600066C0000064C0000062C0000060C0000004
:100070005EC000005CC000005BC1000058C0000012
:1000800056C0000054C0000052C00000AB00D600B3
:10009000C900D600A800D600D600D600D600D600EB
:1000A000B000D600D600D600D600D600B500D600E7
:1000B000D600BA00D600D600D600D600D600D600AC
:1000C000D600D600D600D600D600D600AB00D600AB
:1000D000C900D600A800D600D600D600D600D600AB
:1000E000B000D600D600D600D600D600B500D600A7
:1000F000D600BA0011241FBECFEFD0E1DEBFCDBFC6
:1001000011E0A0E0B1E0E8E9F3E000E00BBF02C0DD
:1001100007900D92A032B107D9F721E0A0E2B1E03B
:1001200001C01D92A432B207E1F77BD033C168CF82
:10013000CF93DF93EC01E09122014E2F50E0FA01C2
:10014000E254F109E433F10588F5EA5BFF4F19C188
:100150001B821A822FC081E090E09B838A832AC091
:1001600082E090E09B838A8325C083E090E09B83BC
:100170008A8320C08C819D8101968A30910514F07C
:1001800089E090E09D838C838091230180932201FC
:1001900011C08C819D81019712F480E090E09D83D5
:1001A0008C83809123018093220104C084E090E03D
:1001B0009B838A83AC81BD81AA0FBB1FA050BF4F18
:1001C000EA81FB81EE0FFF1FEA5EFE4F0190F08196
:1001D000E02D8D919C910995DF91CF9108951F920B
:1001E0000F920FB60F9211248F939F9386E082BFD8
:1001F000809120019091210101969093210180939B
:1002000020019F918F910F900FBE0F901F90189516
:1002100086E082BF83B7846083BF87B7816087BF72
:100220000895CF93DF9300D000D000D0CDB7DEB7D4
:10023000EFDF1DD02DD090D078941A82198284E0FF
:1002400090E09C838B8383E090E09E838D8380E0AD
:1002500090E02FD0E981FA81EE0FFF1FEC5EFE4F98
:100260000190F081E02DCE0101960995F3CF8EB576
:1002700083608EBD8FB582608FBD8EB588618EBD67
:100280008FB5806A8FBD8FEF93E097BD86BD0895CF
:1002900087B3806687BBE1E6F0E080818F60808372
:1002A000E2E6F0E08081807F8083808185608083CA
:1002B0000895E2E6F0E08081807F808380818F6016
:1002C000808308959C01E2E6F0E09081907F908326
:1002D00090819560908339BD28BD3BBD2ABD0895AE
:1002E0009C01E2E6F0E09081907F908390819A609B
:1002F000908339BD28BD3BBD2ABD0895CF93DF93C0
:10030000EC0180E090E0DEDF1BBC1ABCD9BDC8BDAB
:10031000DF91CF910895CF93DF93EC0180E090E0DF
:10032000D1DFDBBDCABD19BC18BCDF91CF910895E8
:100330001F920F920FB60F9211248F93809122017A
:100340008093230180919C00809322018F910F90D4
:100350000FBE0F901F901895109298008FEC80930D
:100360009900EBE9F0E0808182608083EDE9F0E0C4
:10037000808186608083EAE9F0E0808188698083FB
:100380000895EE0FFF1F0024001C0BBE0790F6918E
:08039000E02D0994F894FFCF61
:100398006400C8002C019001F4015802BC0220033B
:1003A8008403E8039800620170017E018B01590102
:00000001FF
