S01000004155544F5F4341522E73726563A6
S113000045C0000060C000005EC000005CC000008D
S11300105AC0000058C0000056C0000054C0000080
S113002052C0000050C000004EC000004CC0000090
S11300304AC0000048C0000046C0000044C00000A0
S113004043C0000040C000003EC000003CC00000AF
S11300503AC0000038C0000036C0000034C00000C0
S113006032C0000030C000002EC000002CC00000D0
S11300702AC0000028C00000D1C0000024C0000035
S113008022C0000020C000001EC0000011241FBEBA
S1130090CFEFD0E1DEBFCDBF11E0A0E0B1E0EAE6F2
S11300A0F2E000E00BBF02C007900D92A230B1074E
S11300B0D9F721E0A2E0B1E001C01D92A430B2075B
S11300C0E1F724D0D0C09CCF1F920F920FB60F92AD
S11300D011248F939F9386E082BF809102019091B7
S11300E00301019690930301809302019F918F91E4
S11300F00F900FBE0F901F90189586E082BF83B7B4
S1130100846083BF87B7816087BF0895F6DF25D0F9
S113011035D094D0789480910001863621F484EF10
S113012091E046D0F8CF80910001823621F484EF2B
S113013091E04CD0F0CF809100018C3621F484EF13
S113014091E052D0E8CF80910001823721F484EF0E
S113015091E057D0E0CF23D0DECF8EB583608EBD43
S11301608FB582608FBD8EB588618EBD8FB5806A74
S11301708FBD8FEF93E097BD86BD089587B38066EA
S113018087BBE1E6F0E080818F608083E2E6F0E007
S11301908081807F80838081856080830895E2E60A
S11301A0F0E08081807F808380818F6080830895E8
S11301B09C01E2E6F0E09081907F908390819560CD
S11301C0908339BD28BD3BBD2ABD08959C01E2E65C
S11301D0F0E09081907F908390819A60908339BD04
S11301E028BD3BBD2ABD0895CF93DF93EC0180E089
S11301F090E0DEDF1BBC1ABCD9BDC8BDDF91CF9136
S11302000895CF93DF93EC0180E090E0D1DFDBBD74
S1130210CABD19BC18BCDF91CF9108951F920F92EB
S11302200FB60F9211248F9380919C00809300014C
S11302308F910F900FBE0F901F90189510929800F9
S11302408FEC80939900EBE9F0E0808182608083F9
S1130250EDE9F0E0808186608083EAE9F0E0808166
S10D0260886980830895F894FFCFA5
S105026A660028
S9030000FC
