:1000000079C0000095C0000093C0000091C00000BE
:100010008FC0000024C30000C5C3000068C40000F6
:1000200087C0000085C0000003C3000081C000003D
:100030007FC000007DC000007BC0000079C00000D0
:100040004DC1000075C0000005C2000071C0000075
:100050006FC000006DC000006BC0000069C00000F0
:1000600067C0000065C0000063C0000061C0000000
:100070005FC000005DC000007FC2000059C00000EA
:1000800057C0000055C0000053C00000AC00D700AE
:10009000CA00D700A900D700D700D700D700D700E3
:1000A000B100D700D700D700D700D700B600D700DF
:1000B000D700BB00D700D700D700D700D700D700A4
:1000C000D700D700D700D700D700D700AC00D700A3
:1000D000CA00D700A900D700D700D700D700D700A3
:1000E000B100D700D700D700D700D700B600D7009F
:1000F000D700BB0011241FBECFEFD0E1DEBFCDBFC4
:1001000011E0A0E0B1E0E6EFF3E100E00BBF02C0D8
:1001100007900D92A834B107D9F722E0A8E4B1E026
:1001200001C01D92AA3FB207E1F7FAD00C94F90979
:1001300067CFCF93DF93EC01E0914C014E2F50E05D
:10014000FA01E254F109E433F10588F5EA5BFF4F67
:1001500043C61B821A822FC081E090E09B838A8372
:100160002AC082E090E09B838A8325C083E090E0F0
:100170009B838A8320C08C819D8101968A30910562
:1001800014F089E090E09D838C8380914D018093F1
:100190004C0111C08C819D81019712F480E090E0A8
:1001A0009D838C8380914D0180934C0104C084E039
:1001B00090E09B838A83AC81BD81AA0FBB1FA050B6
:1001C000BF4FEA81FB81EE0FFF1FE85EFE4F0190FB
:1001D000F081E02D8D919C910995DF91CF9108954B
:1001E000CF93DF93EC0139D480915A0190915B0158
:1001F000892B61F080915C0190915D01892B31F038
:1002000080915E0190915F01892B91F480915A0158
:1002100090915B01892B89F480915C0190915D0143
:10022000892B59F080915E0190915F01892B29F40F
:1002300084E090E09B838A833CC080915A01909136
:100240005B01892B31F080915C0190915D01892BDC
:1002500031F480915A0190915B01892B49F089E03A
:1002600090E09D838C8383E090E09B838A8321C010
:1002700080915C0190915D01892B31F080915E014C
:1002800090915F01892B31F480915E0190915F0123
:10029000892B49F089E090E09D838C8382E090E097
:1002A0009B838A8306C082E090E09D838C831B82BF
:1002B0001A82AC81BD81AA0FBB1FA050BF4FEA813B
:1002C000FB81EE0FFF1FE85EFE4F0190F081E02DF5
:1002D0008D919C910995DF91CF9108951F920F9276
:1002E0000FB60F9211248F939F9386E082BF809167
:1002F00048019091490101969093490180934801EA
:100300009F918F910F900FBE0F901F90189586E0D0
:1003100082BF83B7846083BF87B7816087BF08953A
:10032000CF93DF9300D000D000D0CDB7DEB7EFDFA2
:1003300030D040D035D106D17DD3789482E291E09F
:100340009093F7028093F60281E090E09A8389838C
:100350001C821B8282E090E09E838D8380E090E08F
:100360003AD0E981FA81EE0FFF1FEC5EFE4F01905B
:10037000F081E02DCE010196099580914801909180
:100380004901893E93406CF3109249011092480153
:10039000E8CF8EB583608EBD8FB582608FBD8EB580
:1003A00088618EBD8FB5806A8FBD8FEF93E097BD5A
:1003B00086BD089587B3806687BBE1E6F0E0808163
:1003C0008F608083E2E6F0E08081807F808380819F
:1003D000856080830895E2E6F0E08081807F8083FD
:1003E00080818F60808308959C01E2E6F0E0908137
:1003F000907F908390819560908339BD28BD3BBDEF
:100400002ABD08959C01E2E6F0E09081907F908300
:1004100090819A60908339BD28BD3BBD2ABD089567
:10042000CF93DF93EC0180E090E0DEDF1BBC1ABCD1
:10043000D9BDC8BDDF91CF910895CF93DF93EC0173
:1004400080E090E0D1DFDBBDCABD19BC18BCDF91F4
:10045000CF9108951F920F920FB60F9211240BB6F1
:100460000F922F933F934F935F936F937F938F934D
:100470009F93AF93BF93EF93FF93CF93DF931F921D
:10048000CDB7DEB78CB1898389818A3049F5209157
:10049000600130916101C9010196909361018093DF
:1004A000600180914A0190914B0148E2429FF00126
:1004B000439FF00D1124EE59FE4FE80FF91F1082F3
:1004C00080916001909161016AE070E072D4909334
:1004D00061018093600110924B0110924A011CC08F
:1004E000609160017091610180914A0190914B018E
:1004F0009C012F5F3F4F30934B0120934A0149816C
:1005000058E2569F9001579F300D11242E593E4FAF
:10051000F901E80FF91F40830F90DF91CF91FF9110
:10052000EF91BF91AF919F918F917F916F915F916B
:100530004F913F912F910F900BBE0F900FBE0F90D8
:100540001F901895109290008FEC89B9599AE5E99F
:10055000F0E08081866080838AB188698AB91092D0
:10056000F3021092F202109261011092600108955C
:100570005D9BFECF8CB908951F920F920FB60F921C
:1005800011248F9380914C0180934D0180919C00A8
:1005900080934C018F910F900FBE0F901F90189574
:1005A000109298008FEC80939900EBE9F0E0808145
:1005B00082608083EDE9F0E0808186608083EAE9F3
:1005C000F0E0808188698083089581E090E09093D5
:1005D000570180935601D89885E08A95F1F700007D
:1005E000D89A80E58A95F1F7D898089581E090E04F
:1005F0009093570180935601D99885E08A95F1F739
:100600000000D99A80E58A95F1F7D998089581E09C
:1006100090E09093570180935601DA9885E08A958F
:10062000F1F70000DA9A80E58A95F1F7DA980895F3
:100630001F920F920FB60F9211248F939F93809168
:100640005001909151010196909351018093500176
:100650009F918F910F900FBE0F901F9018951F9232
:100660000F920FB60F9211240BB60F92CF92DF921A
:10067000EF92FF922F933F934F935F936F937F93EC
:100680008F939F93AF93BF93CF93DF93EF93FF939A
:100690008091340190913501892B51F014BC109256
:1006A000350110923401109251011092500161C035
:1006B00084B590E090935301809352016091500172
:1006C0007091510170934F0160934E01C09152019E
:1006D000D0915301072E000C880B990B7BD220E0A0
:1006E00030E040E853E402D36B017C01BE01DD0F32
:1006F000880B990B6FD29B01AC01C701B601D3D116
:1007000020E030E040E053E4F1D220E030E040E887
:100710005DE3ECD22CD2709355016093540180912B
:100720005401909155016AE370E043D370935501F1
:1007300060935401809154019091550109973CF4C4
:1007400081E090E090935B0180935A0104C0109285
:100750005B0110925A0181E090E090933501809303
:1007600034019093590180935801109257011092CF
:100770005601FF91EF91DF91CF91BF91AF919F9182
:100780008F917F916F915F914F913F912F91FF904A
:10079000EF90DF90CF900F900BBE0F900FBE0F9099
:1007A0001F9018951F920F920FB60F9211240BB63F
:1007B0000F92CF92DF92EF92FF922F933F934F933E
:1007C0005F936F937F938F939F93AF93BF93CF93D9
:1007D000DF93EF93FF938091320190913301892B46
:1007E00051F014BC10923301109232011092510159
:1007F0001092500163C084B590E0909353018093B0
:100800005201609150017091510170934F016093BA
:100810004E01C0915201D0915301072E000C880B5C
:10082000990BD8D120E030E040E853E45FD26B016F
:100830007C01BE01DD0F880B990BCCD19B01AC0173
:10084000C701B60130D120E030E040E053E44ED2A1
:1008500020E030E040E85DE349D289D17093550152
:100860006093540180915401909155016AE370E0C6
:10087000A0D27093550160935401809154019091DE
:10088000550109973CF481E090E090935D018093DD
:100890005C0104C010925D0110925C0181E090E067
:1008A000909333018093320182E090E0909359015C
:1008B000809358011092570110925601FF91EF91C9
:1008C000DF91CF91BF91AF919F918F917F916F9168
:1008D0005F914F913F912F91FF90EF90DF90CF90DC
:1008E0000F900BBE0F900FBE0F901F9018951F9288
:1008F0000F920FB60F9211240BB60F92CF92DF9288
:10090000EF92FF922F933F934F935F936F937F9359
:100910008F939F93AF93BF93CF93DF93EF93FF9307
:100920008091300190913101892B51F014BC1092CB
:10093000310110923001109251011092500161C0AA
:1009400084B590E0909353018093520160915001DF
:100950007091510170934F0160934E01C09152010B
:10096000D0915301072E000C880B990B33D120E056
:1009700030E040E853E4BAD16B017C01BE01DD0FE9
:10098000880B990B27D19B01AC01C701B6018BD015
:1009900020E030E040E053E4A9D120E030E040E83E
:1009A0005DE3A4D1E4D0709355016093540180912C
:1009B0005401909155016AE070E0FBD170935501AC
:1009C00060935401809154019091550109973CF432
:1009D00081E090E090935F0180935E0104C01092EB
:1009E0005F0110925E0181E090E09093310180936D
:1009F0003001109259011092580110925701109233
:100A00005601FF91EF91DF91CF91BF91AF919F91EF
:100A10008F917F916F915F914F913F912F91FF90B7
:100A2000EF90DF90CF900F900BBE0F900FBE0F9006
:100A30001F9018958AB387608ABB82B18F7882B97C
:100A40008AB785618ABF85B5856085BD89B78067AE
:100A500089BF87B7806487BF0895809156019091C0
:100A60005701892BF1F480915401909155019F9386
:100A70008F938CE391E09F938F93CBD180E491E0AF
:100A8000DBD1E0915801F0915901EE0FFF1FEA5CB4
:100A9000FE4F0190F081E02D09950F900F900F907F
:100AA0000F9008955058BB27AA270ED0E5C0D6D086
:100AB00030F0DBD020F031F49F3F11F41EF4CBC0B6
:100AC0000EF4E095E7FBC1C0E92FE7D080F3BA1739
:100AD000620773078407950718F071F49EF5FFC04D
:100AE0000EF4E0950B2EBA2FA02D0B01B901900149
:100AF0000C01CA01A0011124FF27591B99F0593F8D
:100B000050F4503E68F11A16F040A22F232F342FD4
:100B10004427585FF3CF469537952795A795F04022
:100B20005395C9F77EF41F16BA0B620B730B840B37
:100B3000BAF09150A1F0FF0FBB1F661F771F881FEF
:100B4000C2F70EC0BA0F621F731F841F48F4879547
:100B500077956795B795F7959E3F08F0B3CF939536
:100B6000880F08F09927EE0F97958795089504D080
:100B70006894B111B5C0089598D088F09F5790F04F
:100B8000B92F9927B751A0F0D1F0660F771F881FB2
:100B9000991F1AF0BA95C9F712C0B13081F09FD0F1
:100BA000B1E008959CC0672F782F8827B85F39F08F
:100BB000B93FCCF3869577956795B395D9F73EF411
:100BC00090958095709561957F4F8F4F9F4F0895B9
:100BD000E89409C097FB3EF49095809570956195D7
:100BE0007F4F8F4F9F4F9923A9F0F92F96E9BB278D
:100BF0009395F695879577956795B795F111F8CF09
:100C0000FAF4BB0F11F460FF1BC06F5F7F4F8F4F73
:100C10009F4F16C0882311F096E911C0772321F069
:100C20009EE8872F762F05C0662371F096E8862F01
:100C300070E060E02AF09A95660F771F881FDAF758
:100C4000880F9695879597F9089597F99F6780E89B
:100C500070E060E008959FEF80EC089500240A940E
:100C60001616170618060906089500240A94121687
:100C70001306140605060895092E0394000C11F4BA
:100C8000882352F0BB0F40F4BF2B11F460FF04C067
:100C90006F5F7F4F8F4F9F4F089557FD9058440FC0
:100CA000551F59F05F3F71F04795880F97FB991FCB
:100CB00061F09F3F79F08795089512161306140688
:100CC000551FF2CF4695F1DF08C016161706180615
:100CD000991FF1CF86957105610508940895E894F0
:100CE000BB2766277727CB0197F908950BD0C4CF90
:100CF000B5DF28F0BADF18F0952309F0A6CFABCF07
:100D00001124EECFCADFA0F3959FD1F3950F50E0E9
:100D1000551F629FF001729FBB27F00DB11D639FAD
:100D2000AA27F00DB11DAA1F649F6627B00DA11D53
:100D3000661F829F2227B00DA11D621F739FB00DF9
:100D4000A11D621F839FA00D611D221F749F332769
:100D5000A00D611D231F849F600D211D822F762F02
:100D60006A2F11249F5750408AF0E1F088234AF0FF
:100D7000EE0FFF1FBB1F661F771F881F915050404B
:100D8000A9F79E3F510570F060CFAACF5F3FECF30B
:100D9000983EDCF3869577956795B795F795E79537
:100DA0009F5FC1F7FE2B880F911D9695879597F948
:100DB000089597FB072E16F4009406D077FD08D00F
:100DC00014D007FC05D03EF4909581959F4F08956F
:100DD000709561957F4F0895EE0FFF1F0024001C52
:100DE0000BBE0790F691E02D0994AA1BBB1B51E1A5
:100DF00007C0AA1FBB1FA617B70710F0A61BB70B8B
:100E0000881F991F5A95A9F780959095BC01CD012F
:100E10000895CF93DF93CDB7DEB7AE014B5F5F4F41
:100E2000FA0161917191AF018091F6029091F70200
:100E300033D0DF91CF9108950F931F93CF93DF931A
:100E4000E091F602F091F702238121FF1BC08C0193
:100E5000D0E0C0E0F80181918F016091F6027091BD
:100E6000F702DB011896ED91FC911997882331F078
:100E70000995892B79F3DFEFCFEFECCF8AE0099565
:100E8000892B19F08FEF9FEF02C08D2F9C2FDF91E0
:100E9000CF911F910F9108952F923F924F925F92A1
:100EA0006F927F928F929F92AF92BF92CF92DF927A
:100EB000EF92FF920F931F93CF93DF93CDB7DEB7DF
:100EC0002B970FB6F894DEBF0FBECDBF6C017B0130
:100ED0008A01FC0117821682838181FFBFC1CE0186
:100EE00001963C01F6019381F70193FD859193FFF3
:100EF00081917F01882309F4ADC1853239F493FDD6
:100F0000859193FF81917F01853221F4B60190E0B4
:100F1000D6D1E8CF912C212C312CFFE1F315D8F05C
:100F20008B3279F038F4803279F08332A1F4232DBA
:100F300020611DC08D3261F0803369F4232D216062
:100F400016C0832D8260382EE32DE4603E2E2AC029
:100F5000F32DF8601DC037FC2DC020ED280F2A307E
:100F600040F08E32B9F436FC75C1232D2064322E48
:100F700019C036FE06C08AE0989E200D1124922EDC
:100F800011C0EAE02E9E200D1124222EF32DF062D6
:100F90003F2E08C08C3621F4832D8068382E02C085
:100FA000883641F4F70193FD859193FF81917F018C
:100FB0008111B3CF982F9F7D9554933028F40C5F07
:100FC0001F4F9FE399830DC0833631F0833771F053
:100FD000833509F055C020C0F801808189830E5FF8
:100FE0001F4F88248394912C530112C02801F2E0F2
:100FF0004F0E511CF801A080B18036FE03C0692D50
:1010000070E002C06FEF7FEFC5014ED14C0182014D
:10101000F32DFF773F2E15C0280122E0420E511C10
:10102000F801A080B18036FE03C0692D70E002C0D7
:101030006FEF7FEFC5012DD14C01F32DF0683F2EEE
:10104000820133FC19C0822D90E088169906A0F425
:10105000B60180E290E033D12A94F5CFF50137FC58
:10106000859137FE81915F01B60190E028D1211072
:101070002A9421E0821A91088114910479F7E1C041
:10108000843611F0893639F5F80137FE07C06081E2
:101090007181828193810C5F1F4F08C060817181D3
:1010A000072E000C880B990B0E5F1F4FF32DFF7658
:1010B0003F2E97FF09C090958095709561957F4F61
:1010C0008F4F9F4FF0683F2E2AE030E0A30133D1CD
:1010D000882E861844C0853731F4232D2F7EB22EFA
:1010E0002AE030E025C0932D997FB92E8F36C1F0CC
:1010F00018F4883579F0AEC0803719F0883721F0C0
:10110000A9C0E92FE061BE2EB4FE0DC0FB2DF46036
:10111000BF2E09C034FE0AC0292F2660B22E06C099
:1011200028E030E005C020E130E002C020E132E0FC
:10113000F801B7FE07C060817181828193810C5FE5
:101140001F4F06C06081718180E090E00E5F1F4FED
:10115000A301F1D0882E8618FB2DFF773F2E36FE97
:101160000DC0232D2E7FA22E891458F434FE0BC0FF
:1011700032FC09C0832D8E7EA82E05C0B82CA32C6E
:1011800003C0B82C01C0B92CA4FE0FC0FE01E80DAD
:10119000F11D8081803321F49A2D997EA92E09C0FA
:1011A000A2FE06C0B394B39404C08A2D867809F0D9
:1011B000B394A3FC10C0A0FE06C0B21480F4280CA7
:1011C000922C9B180DC0B21458F4B60180E290E046
:1011D00076D0B394F8CFB21418F42B1802C0982C20
:1011E000212CA4FE0FC0B60180E390E068D0A2FEDF
:1011F00016C0A1FC03C088E790E002C088E590E03B
:10120000B6010CC08A2D867851F0A1FE02C08BE297
:1012100001C080E2A7FC8DE2B60190E050D08914B5
:1012200030F4B60180E390E04AD09A94F8CF8A94E3
:10123000F301E80DF11D8081B60190E040D08110EE
:10124000F6CF222009F44ECEB60180E290E037D0EE
:101250002A94F7CFF6018681978102C08FEF9FEF26
:101260002B960FB6F894DEBF0FBECDBFDF91CF91A6
:101270001F910F91FF90EF90DF90CF90BF90AF90B4
:101280009F908F907F906F905F904F903F902F90A6
:101290000895FC010590615070400110D8F78095C9
:1012A00090958E0F9F1F0895FC0161507040019032
:1012B0000110D8F7809590958E0F9F1F08950F937A
:1012C0001F93CF93DF93FB01238121FD03C08FEF99
:1012D0009FEF2CC022FF16C04681578124813581A3
:1012E0004217530744F4A081B1819D012F5F3F4F06
:1012F000318320838C93268137812F5F3F4F378343
:10130000268314C08B01EC01FB010084F185E02DE4
:101310000995892BE1F6D80116968D919C91179726
:10132000019617969C938E931697CE01DF91CF91DD
:101330001F910F910895FA01AA27283051F1203109
:1013400081F1E8946F936E7F6E5F7F4F8F4F9F4F59
:10135000AF4FB1E03ED0B4E03CD0670F781F891F9B
:101360009A1FA11D680F791F8A1F911DA11D6A0F69
:10137000711D811D911DA11D20D009F468943F911C
:101380002AE0269F11243019305D3193DEF6CF011B
:101390000895462F4770405D4193B3E00FD0C9F7E1
:1013A000F6CF462F4F70405D4A3318F0495D31FD4E
:1013B0004052419302D0A9F7EACFB4E0A6959795A1
:1013C000879577956795BA95C9F700976105710577
:1013D00008959B01AC010A2E0694579547953795C1
:1013E0002795BA95C9F7620F731F841F951FA01D1B
:0613F0000895F894FFCF00
:1013F6006400C8002C019001F4015802BC022003CD
:101406008403E8039900F000F401020210021D02B1
:10141600EB010000000200000000B802000000001E
:10142600010001000100E502F602070325640A0037
:081436007472696767657200BA
:00000001FF
