S01000004155544F5F4341522E73726563A6
S113000045C0000053C0000051C000004FC00000B4
S11300104DC000004BC0000049C0000047C00000B4
S113002045C0000043C0000041C000003FC00000C4
S11300303DC000003BC0000039C0000037C00000D4
S113004036C0000033C0000031C000002FC00000E3
S11300502DC000002BC0000029C0000027C00000F4
S113006025C0000023C0000021C000001FC0000004
S11300701DC000001BC0000019C0000017C0000014
S113008015C0000013C0000011C0000011241FBEE1
S1130090CFEFD0E1DEBFCDBF21E0A0E0B1E001C0F1
S11300A01D92A230B207E1F724D0B0C0A9CF1F92AD
S11300B00F920FB60F9211248F939F9386E082BF05
S11300C08091000190910101019690930101809328
S11300D000019F918F910F900FBE0F901F90189564
S11300E086E082BF83B7846083BF87B7816087BFA0
S11300F00895F6DF33D043D0789480910001909135
S11301000101813A9F402CF01092010110920001EC
S1130110F4CF8091000190910101893B9B4024F030
S113012084EF91E059D0E9CF8091000190910101D1
S1130130813D974024F084EF91E05BD0DECF809145
S1130140000190910101893E934024F084EF91E0F5
S113015035D0D3CF84EF91E023D0CFCF8EB5836059
S11301608EBD8FB582608FBD8EB588618EBD8FB513
S1130170806A8FBD8FEF93E097BD86BD089587B3E6
S1130180806687BBE1E6F0E080818F608083E2E6F1
S1130190F0E08081807F8083808185608083089502
S11301A09C01E2E6F0E09081907F908390819560DD
S11301B0908339BD28BD3BBD2ABD08959C01E2E66C
S11301C0F0E09081907F908390819A60908339BD14
S11301D028BD3BBD2ABD0895CF93DF93EC0180E099
S11301E090E0DEDF1BBC1ABCD9BDC8BDDF91CF9146
S11301F00895CF93DF93EC0180E090E0D1DFDBBD85
S1130200CABD19BC18BCDF91CF910895F894FFCFF3
S9030000FC
