:1000000079C0000095C0000093C0000091C00000BE
:100010008FC0000083C70000C5C700000C941608FD
:1000200087C0000085C0000062C7000081C00000DA
:100030007FC000007DC000007BC0000079C00000D0
:10004000A0C3000075C0000064C6000071C00000BD
:100050006FC000006DC000006BC0000069C00000F0
:1000600067C0000065C0000063C0000061C0000000
:100070005FC000005DC00000DEC6000059C0000087
:1000800057C0000055C0000053C0000010024902D4
:10009000380249020B024902490249024902490257
:1000A0001702490249024902490249021E02490255
:1000B000490225024902490249024902490249020C
:1000C0004902490249024902490249021002490211
:1000D000380249020B024902490249024902490217
:1000E0001702490249024902490249021E02490215
:1000F0004902250211241FBECFEFD0E1DEBFCDBFE4
:1001000012E0A0E0B1E0EEE7F1E100E00BBF02C0D9
:1001100007900D92A63AB107D9F724E0A6EAB2E01B
:1001200001C01D92A736B207E1F768D40C94BD0850
:1001300067CFD398089549B321E030E002C0220F81
:10014000331F6A95E2F750E024233523232BB9F0BF
:10015000FC01EA55FD4F2081211127C02FEF3DEE14
:1001600042E0215030404040E1F700C00000FC0177
:10017000EA55FD4F21E0208380E090E00895FC01E6
:10018000EA55FD4F2081213099F42FEF3DEE42E0FA
:10019000215030404040E1F700C00000FC01EA552A
:1001A000FD4F108281E090E0089580E090E0089596
:1001B00080E090E008959FEF94BB8AB3806F8ABB84
:1001C00095BB08958BB38F708BBB0895CF93DF934E
:1001D000EC01F8DF8091A7029091A802813091058F
:1001E00071F01CF4892B39F015C08230910559F05B
:1001F000039769F00FC0DC9A888185BB0BC0DD9A3C
:100200008A8185BB07C0DE9A8C8185BB03C0DF9ADB
:100210008E8185BB8091A7029091A8020196837080
:100220009078992324F401978C6F9F6F0196909397
:10023000A8028093A702DF91CF9108958093700068
:10024000089584EA80937400E4E7F0E080818823D5
:10025000ECF708958093730084E880937400E4E7DA
:10026000F0E080818823ECF70895CF93DF93D82FB7
:10027000C62FE7DF8D2FEEDF8C2FECDF84E9809334
:100280007400DF91CF910895EF92FF920F931F9327
:10029000CF93DF9300D000D0CDB7DEB7282F207FDB
:1002A00030E1839FC0011124922F9D6099832960C2
:1002B0002A83982F9D609B8389608C838E010F5FBA
:1002C0001F4F7E0185E0E80EF11CF80161918F015E
:1002D0008EE4CBDF0E151F05C1F70F900F900F9026
:1002E0000F90DF91CF911F910F91FF90EF900895A4
:1002F000EF92FF920F931F93CF93DF9300D000D024
:10030000CDB7DEB7282F207F30E1839FC0011124B5
:10031000922F9C60998328602A83982F9C609B83EE
:1003200088608C838E010F5F1F4F7E0185E0E80E91
:10033000F11CF80161918F018EE497DF0E151F0506
:10034000C1F70F900F900F900F90DF91CF911F91F9
:100350000F91FF90EF90089581E0CADF8FE39FE156
:100360000197F1F700C00000089580E197E266DF91
:100370002FEF80E792E0215080409040E1F700C0ED
:10038000000083E3B5DF82E3B3DF88E2B1DF8CE016
:10039000AFDF86E0ADDF81E0ABDF8FE39CE9019763
:1003A000F1F700C0000008950F931F93CF93FC0155
:1003B0008081882351F08F01C0E066DFCF5FF801B4
:1003C000EC0FF11D80818111F8CFCF911F910F911A
:1003D000089581706F7090E4899F600D1124862FBD
:1003E000805886CF0895CF93DF93EA01F2DFCE01E4
:1003F000DBDFDF91CF910895DC01E091BB024E2F4E
:1004000050E0FA01E254F109E433F10508F041C08B
:10041000EA5BFF4F95C613961C921E92129787C0F7
:1004200081E090E013969C938E93129780C082E0B7
:1004300090E013969C938E93129779C083E090E09E
:1004400013969C938E93129772C016968D919C91E1
:10045000179701968A30910514F089E090E017967D
:100460009C938E9316978091BC028093BB021EC012
:1004700016968D919C911797019712F480E090E069
:1004800017969C938E9316978091BC028093BB0223
:100490000DC084E090E013969C938E93129780E2B7
:1004A00091E01D969C938E931C9723C012962D91DC
:1004B0003C911397C901880F991F880F991F880FC6
:1004C000991F80509F4F1D969C938E931C972430AC
:1004D000310579F01696ED91FC911797EE0FFF1FFD
:1004E000E05BFE4F808191811B969C938E931A97BF
:1004F0000AC080916401909165011B969C938E9334
:100500001A9724E030E016960D90BC91A02DAA0F0A
:10051000BB1FAA59BE4F220F331FF901EE57FE4FE2
:100520000190F081E02D8D919C910995089512968E
:100530002D913C911397C901880F991F880F991F1E
:10054000880F991F80509F4F1D969C938E931C97E8
:10055000C1CFCF93DF93EC01BED58A819B819C01F3
:10056000275031092230310518F52091A902309128
:10057000AA022F5F3F4F3093AA022093A902243F83
:10058000314094F4AE81BF81AA0FBB1FAA59BE4F60
:10059000880F991FFC01EE57FE4F0190F081E02D6E
:1005A0008D919C91099504C01092AA021092A90203
:1005B0008091C7029091C8024A979CF08091C9022D
:1005C0009091CA024A976CF08091CB029091CC0234
:1005D0004A973CF089E090E09F838E831B821A82C9
:1005E000B5C08091C9029091CA024997D4F4809114
:1005F000CB029091CC024097A4F02091C702309199
:10060000C8028091CB029091CC02281739074CF494
:1006100089E090E09F838E8388E090E09B838A83CB
:1006200095C08091C9029091CA024997D4F48091F3
:10063000C7029091C8024097A4F02091C702309160
:10064000C8028091CB029091CC02821793074CF4A0
:1006500089E090E09F838E8387E090E09B838A838C
:1006600075C08091C7029091C8020A977CF480916E
:10067000CB029091CC020B974CF089E090E09F83E5
:100680008E8383E090E09B838A8360C08091CB025D
:100690009091CC020A977CF48091C7029091C80295
:1006A0000B974CF089E090E09F838E8382E090E08E
:1006B0009B838A834BC08091C7029091C8020597A3
:1006C000ACF48091C9029091CA0205977CF48091A4
:1006D000CB029091CC0205974CF483E090E09F838D
:1006E0008E8381E090E09B838A8330C08091C90231
:1006F0009091CA0205978CF484E090E09B838A83F2
:1007000080E291E09D878C878091640190916501E2
:100710009B878A8784E090E007C085E090E09F8314
:100720008E831B821A8212C0AE81BF81AA0FBB1FAB
:10073000AA59BE4F880F991FFC01EE57FE4F01903A
:10074000F081E02D8D919C91099518C08A819B8143
:100750009C01220F331F220F331F220F331F205003
:100760003F4F3D872C87EE81FF81EE0FFF1FE05B3F
:10077000FE4F208131813B872A87D6CFDF91CF91F1
:1007800008951F920F920FB60F9211248F939F938B
:1007900086E082BF8091AF029091B0020196909363
:1007A000B0028093AF0281E090E09093AC0280931E
:1007B000AB029F918F910F900FBE0F901F901895D5
:1007C00086E082BF83B7846083BF87B7816087BFBD
:1007D0000895CF93DF93CDB7DEB760970FB6F89447
:1007E000DEBF0FBECDBFECDF0AD11AD138D309D39B
:1007F0005FD49FDCBADDDFDCD8D1789484E991E066
:1008000090936404809363041A82198284E090E0D8
:100810009C838B8383E090E098878F83E8E4F1E00A
:10082000808191819A878987868597859C878B8728
:1008300080E291E09E878D8783EE95E0988B8F878D
:1008400080E090E0FED00F2EF4E62F2E312CF02D1C
:1008500008E411E06894CC24C1F8D12C0F2EF0E00C
:10086000EF2EF1E0FF2EF02D0F2EF4EE4F2EF5E0DF
:100870005F2EF02D0F2EFCE36F2EF6E07F2EF02D75
:1008800088248394912C0F2EFCE0AF2EF6E0BF2E2F
:10089000F02D8091AB029091AC02892BE9F010927F
:1008A000AC021092AB028D859E8590DCEF85F889B5
:1008B00009958091AF029091B002B1012ED4892B9D
:1008C00059F44ADD49855A8560E080E08CDD4B852E
:1008D0005C8560E081E087DD63E070E080E090E0CF
:1008E0002ADC892B09F468C089819A810097A1F4D8
:1008F0009A8289821C821B82D886CF82F8018281EB
:1009000093819A878987848595859C878B87FE86C6
:10091000ED86B88AAF8650C081309105A1F4DA82A5
:10092000C9821C821B82D886CF82F801848195817E
:100930009A878987848595859C878B87FE86ED8637
:10094000788A6F8639C082309105B1F483E090E0F7
:100950009A8389831C821B82D886CF82F801868184
:1009600097819A878987848595859C878B87FE8662
:10097000ED86588A4F8620C00397F1F4F3E7F09391
:10098000BB021A82198284E090E09C838B8383E00F
:1009900090E098878F83F801808191819A87898779
:1009A000868597859C878B8780E291E09E878D87DF
:1009B000E3EEF5E0F88BEF87E981FA81EE0FFF1F98
:1009C000E658FE4F0190F081E02DCE010196099589
:1009D0008091AF029091B002893E93400CF459CFC0
:1009E0001092B0021092AF028091AD029091AE02CF
:1009F00001969093AE028093AD0230CFEADE8EB5C1
:100A000083608EBD8FB582608FBD8EB588618EBDCF
:100A10008FB5806A8FBD8FEF93E097BD86BD089537
:100A200087B3806687BBE1E6F0E080818F608083DA
:100A3000E2E6F0E08081807F808380818560808332
:100A40000895E2E6F0E08081807F808380818F607E
:100A5000808308959C01E2E6F0E09081907F90838E
:100A600090819560908339BD28BD3BBD2ABD089516
:100A70009C01E2E6F0E09081907F908390819A6003
:100A8000908339BD28BD3BBD2ABD0895CF93DF9328
:100A9000EC0180E090E0DEDF1BBC1ABCD9BDC8BD14
:100AA000DF91CF910895CF93DF93EC0180E090E048
:100AB000D1DFDBBDCABD19BC18BCDF91CF91089551
:100AC000CF93DF93EC0180E090E0D2DF8CE291E005
:100AD0009BBD8ABDD9BDC8BDDF91CF910895CF938D
:100AE000DF93EC0180E090E0C3DFDBBDCABD8CE2A8
:100AF00091E099BD88BDDF91CF9108959C01E2E618
:100B0000F0E09081907F908390819660908339BDD2
:100B100028BD3BBD2ABD08959C01E2E6F0E090812E
:100B2000907F908390819960908339BD28BD3BBDB3
:100B30002ABD08952091B7023091B802121613060B
:100B40004CF4215031093093B8022093B70283E06E
:100B500090E008952091B5023091B60221503109FC
:100B60003093B6022093B5022F3F4FEF340759F46C
:100B70007093B6026093B5029093870080938600CD
:100B800081E090E00895232B69F48AE090E090934F
:100B9000B8028093B702109287001092860082E01C
:100BA00090E0089581E090E00895139A80E48093A6
:100BB0008B008AE080938A0010928C00109287004C
:100BC0001092860008950895CF93DF93C091B302E9
:100BD000D091B402FE01EE0FFF1FEE55FE4F808153
:100BE000918180332FE2920729F41092B40210927F
:100BF000B3020FC0FE01EE0FFF1FEE58FD4F6081E4
:100C0000718198DF029729F42196D093B402C093A2
:100C1000B302DF91CF9108958091DA019091DB01C9
:100C20001816190634F401979093DB018093DA01CA
:100C300014C088EE93E09093DB018093DA0181E0A9
:100C400090E02091B1023091B202232B11F080E0AC
:100C500090E09093B2028093B102E091B102F091E2
:100C6000B202EE0FFF1FEE55FD4F808191819093F0
:100C700087008093860008958091D8019091D901D2
:100C80001816190634F401979093D9018093D8016E
:100C900037C083E090E09093D9018093D801809190
:100CA000D6019091D701892BA9F08091D401909120
:100CB000D50101969093D5018093D401809186004F
:100CC000909187008F3E9240D8F01092D7011092F9
:100CD000D60116C08091D4019091D50101979093CF
:100CE000D5018093D40180918600909187008C3249
:100CF000914030F481E090E09093D7018093D60149
:100D00008091D4019091D5019093870080938600C3
:100D100008951F920F920FB60F9211240BB60F92E7
:100D20002F933F934F935F936F937F938F939F93F3
:100D3000AF93BF93EF93FF93CF93DF931F92CDB702
:100D4000DEB78CB1898389818A3049F52091CD0243
:100D50003091CE02C90101969093CE028093CD02CC
:100D60008091B9029091BA0248E2429FF001439FFC
:100D7000F00D1124E153FD4FE80FF91F108280910F
:100D8000CD029091CE026AE070E0C7D19093CE027E
:100D90008093CD021092BA021092B9021CC06091E9
:100DA000CD027091CE028091B9029091BA029C015D
:100DB0002F5F3F4F3093BA022093B902498158E226
:100DC000569F9001579F300D112421533D4FF9013B
:100DD000E80FF91F40830F90DF91CF91FF91EF91C2
:100DE000BF91AF919F918F917F916F915F914F9143
:100DF0003F912F910F900BBE0F900FBE0F901F9041
:100E00001895109290008FEC89B9599AE5E9F0E0B5
:100E10008081866080838AB188698AB91092600473
:100E200010925F041092CE021092CD0208955D9B45
:100E3000FECF8CB908951F920F920FB60F92112416
:100E40008F938091BB028093BC0280919C00809321
:100E5000BB028F910F900FBE0F901F9018951092AC
:100E600098008FEC80939900EBE9F0E0808182603C
:100E70008083EDE9F0E0808186608083EAE9F0E03C
:100E8000808188698083089581E090E09093C40216
:100E90008093C302D89885E08A95F1F70000D89A2C
:100EA00080E58A95F1F7D898089581E090E09093D5
:100EB000C4028093C302D99885E08A95F1F70000B7
:100EC000D99A80E58A95F1F7D998089581E090E064
:100ED0009093C4028093C302DA9885E08A95F1F773
:100EE0000000DA9A80E58A95F1F7DA9808951F9262
:100EF0000F920FB60F9211248F939F938091BF0290
:100F00009091C00201969093C0028093BF029F917E
:100F10008F910F900FBE0F901F9018951F920F92F8
:100F20000FB60F9211248F939F9385E08A95F1F766
:100F300000000C9B06C014BC1092C0021092BF02AD
:100F40002AC084B590E09093C2028093C102809140
:100F5000BF029091C0029093BE028093BD0218160A
:100F600019063CF48CE291E09093C8028093C7028A
:100F700008C08091C1029091C2029093C8028093F0
:100F8000C70281E090E09093C6028093C502109260
:100F9000C4021092C3029F918F910F900FBE0F90C9
:100FA0001F9018951F920F920FB60F9211248F93D6
:100FB0009F9385E08A95F1F700000D9B06C014BC55
:100FC0001092C0021092BF022AC084B590E09093A4
:100FD000C2028093C1028091BF029091C00290939F
:100FE000BE028093BD02181619063CF48CE291E013
:100FF0009093CA028093C90208C08091C102909167
:10100000C2029093CA028093C90282E090E090935A
:10101000C6028093C5021092C4021092C3029F912F
:101020008F910F900FBE0F901F9018951F920F92E7
:101030000FB60F9211248F939F9385E08A95F1F755
:1010400000000E9B06C014BC1092C0021092BF029A
:1010500028C084B590E09093C2028093C102809131
:10106000BF029091C0029093BE028093BD021816F9
:1010700019063CF48CE291E09093CC028093CB0271
:1010800008C08091C1029091C2029093CC028093DB
:10109000CB021092C6021092C5021092C4021092A6
:1010A000C3029F918F910F900FBE0F901F901895C4
:1010B0008AB387608ABB82B18F7882B98AB785612B
:1010C0008ABF85B5856085BD89B7806789BF87B7C9
:1010D000806487BF08958091C3029091C402892BD8
:1010E00089F41092AE021092AD02E091C502F09127
:1010F000C602EE0FFF1FE452FE4F0190F081E02D7B
:10110000099508958091AD029091AE02049724F064
:101110001092C4021092C302089597FB072E16F492
:10112000009406D077FD08D014D007FC05D03EF41B
:10113000909581959F4F0895709561957F4F089583
:10114000EE0FFF1F0024001C0BBE0790F691E02D50
:101150000994AA1BBB1B51E107C0AA1FBB1FA617FE
:10116000B70710F0A61BB70B881F991F5A95A9F750
:0E11700080959095BC01CD010895F894FFCFB5
:10117E008E00FF00FF00FF008300FF00FF00FF0056
:10118E00C700FF00FF00FF008800FF00FF00FF0008
:10119E009200FF00FF00FF008300FF00C700FF006A
:1011AE008300FF008800FF00FF00FF00C700C7009C
:1011BE00FF00FF0088008800E201EE01F701030244
:1011CE0010021E0226022E0236023E0246024E0277
:1011DE0056025E026D026400C8002C019001F401FB
:1011EE005802BC0220038403E803FC01A902A902F1
:1011FE00A9022A05380546055305210560056F0528
:10120E007E058C050000000200000000170700009C
:10121E000000FC04FC0470047004FC04FC04ED05E6
:10122E00FC04FC04ED05ED05A706FC04FC047004AB
:10123E007004FC04FC04ED05FC04ED05A706ED05A9
:10124E007707302F2C0101000300E80344075507F0
:10125E0066076D616E75616C206D6F646500414D42
:10126E0042554C414345004649524520454E47495B
:10127E004E45004B494E44455247415254454E004F
:10128E007370656564203120286D696E2900737056
:10129E006565642032007370656564203300737079
:1012AE006565642034007370656564203500737065
:1012BE006565642036007370656564203700737051
:1012CE00656564203800737065656420390073703D
:1012DE0065656420313020286D6178290073746F44
:1012EE007000550155015501550155015501AA02D0
:1012FE00550155015501550154055501550155012D
:10130E00550155015501AA025501550155015501C9
:06131E005405B202620258
:00000001FF
