S01000004155544F5F4341522E73726563A6
S113000079C0000094C0000092C0000090C00000BD
S11300108EC000003DC600007FC60000C1C60000BF
S113002086C0000084C000001CC6000080C0000020
S11300307EC000007CC000007AC0000078C00000D0
S113004095C3000074C000001EC5000070C000000D
S11300506EC000006CC000006AC0000068C00000F0
S113006066C0000064C0000062C0000060C0000000
S11300705EC000005CC0000098C5000058C00000CD
S113008056C0000054C0000052C000000F024802D5
S1130090370248020A02480248024802480248025B
S11300A01602480248024802480248021D02480259
S11300B04802240248024802480248024802480210
S11300C04802480248024802480248020F02480215
S11300D0370248020A02480248024802480248021B
S11300E01602480248024802480248021D02480219
S11300F04802240211241FBECFEFD0E1DEBFCDBFE2
S113010012E0A0E0B1E0E2EFFEE000E00BBF02C0CD
S113011007900D92AE31B107D9F723E0AEE1B2E01A
S113012001C01D92A73DB207E1F711D4E0C668CF24
S1130130D398089549B321E030E002C0220F331F61
S11301406A95E2F750E024233523232BB9F0FC0110
S1130150E25EFD4F2081211127C02FEF3DEE42E0EA
S1130160215030404040E1F700C00000FC01E25E55
S1130170FD4F21E0208380E090E00895FC01E25EE1
S1130180FD4F2081213099F42FEF3DEE42E02150C4
S113019030404040E1F700C00000FC01E25EFD4F4A
S11301A0108281E090E0089580E090E0089580E07E
S11301B090E008959FEF94BB8AB3806F8ABB95BB90
S11301C008958BB38F708BBB0895CF93DF93EC01AD
S11301D0F8DF80911F02909120028130910571F027
S11301E01CF4892B39F015C08230910559F003971E
S11301F069F00FC0DC9A888185BB0BC0DD9A8A81C7
S113020085BB07C0DE9A8C8185BB03C0DF9A8E81D3
S113021085BB80911F029091200201968370907893
S1130220992324F401978C6F9F6F01969093200279
S113023080931F02DF91CF910895809370000895F9
S113024084EA80937400E4E7F0E080818823ECF78B
S113025008958093730084E880937400E4E7F0E0E9
S113026080818823ECF70895CF93DF93D82FC62F8E
S1130270E7DF8D2FEEDF8C2FECDF84E980937400B1
S1130280DF91CF910895EF92FF920F931F93CF9335
S1130290DF9300D000D0CDB7DEB7282F207F30E128
S11302A0839FC0011124922F9D60998329602A8322
S11302B0982F9D609B8389608C838E010F5F1F4FF5
S11302C07E0185E0E80EF11CF80161918F018EE456
S11302D0CBDF0E151F05C1F70F900F900F900F90F5
S11302E0DF91CF911F910F91FF90EF900895EF92BE
S11302F0FF920F931F93CF93DF9300D000D0CDB71D
S1130300DEB7282F207F30E1839FC0011124922F74
S11303109C60998328602A83982F9C609B838860C3
S11303208C838E010F5F1F4F7E0185E0E80EF11C68
S1130330F80161918F018EE497DF0E151F05C1F757
S11303400F900F900F900F90DF91CF911F910F910D
S1130350FF90EF90089581E0CADF8FE39FE101975A
S1130360F1F700C00000089580E197E266DF2FEF07
S113037080E792E0215080409040E1F700C0000007
S113038083E3B5DF82E3B3DF88E2B1DF8CE0AFDF84
S113039086E0ADDF81E0ABDF8FE39CE90197F1F705
S11303A000C0000008950F931F93CF93FC01808138
S11303B0882351F08F01C0E066DFCF5FF801EC0FB6
S11303C0F11D80818111F8CFCF911F910F91089574
S11303D081706F7090E4899F600D1124862F80587E
S11303E086CF0895CF93DF93EA01F2DFCE01DBDFFE
S11303F0DF91CF910895DC01E0912B024E2F50E064
S1130400FA01E254F109E433F10508F041C0EA5B72
S1130410FF4F50C513961C921E92129787C081E01D
S113042090E013969C938E93129780C082E090E0A4
S113043013969C938E93129779C083E090E0139661
S11304409C938E93129772C016968D919C911797D8
S113045001968A30910514F089E090E017969C93F8
S11304608E93169780912C0280932B021EC01696B1
S11304708D919C911797019712F480E090E0179664
S11304809C938E93169780912C0280932B020DC01F
S113049084E090E013969C938E93129780E291E00F
S11304A01D969C938E931C9723C012962D913C917C
S11304B01397C901880F991F880F991F880F991FD7
S11304C080509F4F1D969C938E931C97243031052A
S11304D079F01696ED91FC911797EE0FFF1FE45BF0
S11304E0FE4F808191811B969C938E931A970AC02C
S11304F080916001909161011B969C938E931A9751
S113050024E030E016960D90BC91A02DAA0FBB1FDD
S1130510AE59BE4F220F331FF901E658FE4F01902A
S1130520F081E02D8D919C910995089512962D915D
S11305303C911397C901880F991F880F991F880F41
S1130540991F80509F4F1D969C938E931C97C1CFEB
S1130550CF93DF93EC0179D48A819B819C0127504E
S113056031092230310518F52091210230912202FF
S11305702F5F3F4F3093220220932102243F3140CA
S113058094F4AE81BF81AA0FBB1FAE59BE4F880F32
S1130590991FFC01E658FE4F0190F081E02D8D91EA
S11305A09C91099504C0109222021092210280911C
S11305B03702909138024A979CF0809139029091C9
S11305C03A024A976CF080913B0290913C024A9720
S11305D03CF089E090E09F838E831B821A82ABC03B
S11305E080913702909138020A97ACF480913902D5
S11305F090913A0249977CF480913B0290913C029D
S113060040974CF089E090E09F838E8388E090E0EF
S11306109B838A8390C080913B0290913C020A970D
S1130620ACF48091390290913A0249977CF480911C
S113063037029091380240974CF089E090E09F8314
S11306408E8387E090E09B838A8375C08091370214
S1130650909138020A977CF480913B0290913C027D
S11306600B974CF089E090E09F838E8383E090E0C9
S11306709B838A8360C080913B0290913C020A97DD
S11306807CF480913702909138020B974CF089E00A
S113069090E09F838E8382E090E09B838A834BC0AB
S11306A080913702909138020597ACF48091390219
S11306B090913A0205977CF480913B0290913C0220
S11306C005974CF483E090E09F838E8381E090E073
S11306D09B838A8330C08091390290913A020597B6
S11306E08CF484E090E09B838A8380E291E09D8790
S11306F08C8780916001909161019B878A8784E057
S113070090E007C085E090E09F838E831B821A826D
S113071012C0AE81BF81AA0FBB1FAE59BE4F880F56
S1130720991FFC01E658FE4F0190F081E02D8D9158
S11307309C91099518C08A819B819C01220F331FCB
S1130740220F331F220F331F20503F4F3D872C872A
S1130750EE81FF81EE0FFF1FE45BFE4F20813181AC
S11307603B872A87D6CFDF91CF9108951F920F92AE
S11307700FB60F9211248F939F9386E082BF8091CE
S113078027029091280201969093280280932702D1
S113079081E090E090932402809323029F918F91B3
S11307A00F900FBE0F901F90189586E082BF83B7FD
S11307B0846083BF87B7816087BF0895CF93DF9339
S11307C0CDB7DEB72E970FB6F894DEBF0FBECDBF00
S11307D0ECDFBED0CED0FDD1CED124D3A9DCC4DD94
S11307E0E9DC78948CE891E09093D4038093D3036C
S11307F01A82198284E090E09C838B8383E090E0EA
S113080098878F83E8E4F1E0808191819A878987D2
S1130810828593859C878B8780E291E09E878D8774
S113082080E090E0B7D00F2EF4E6CF2ED12CF02D3F
S113083008E411E06894882481F8912C6894662473
S113084062F8712C0F2EF0E24F2EF1E05F2EF02DA6
S1130850AA24A394B12C0F2EF0E0EF2EF1E0FF2E8A
S1130860F02D8091230290912402892BD1F01092D3
S11308702402109223028D859E85A7DC8091270295
S113088090912802B60103D3892B59F464DD49857C
S11308905A8560E080E0A6DD4B855C8560E081E000
S11308A0A1DD63E070E080E090E044DC892B69F135
S11308B089819A81009791F4BA82A9821C821B8251
S11308C098868F82F801828193819A8789878681AD
S11308D097819C878B87FE86ED8617C00197A9F4C4
S11308E010922B021A8219827C826B8283E090E040
S11308F098878F83F801808191819A878987808D79
S1130900918D9C878B875E864D86E981FA81EE0FF7
S1130910FF1FEA58FE4F0190F081E02DCE010196B1
S113092009958091270290912802893E93400CF406
S113093098CF10922802109227028091250290915C
S113094026020196909326028093250284CF36DFF7
S11309508EB583608EBD8FB582608FBD8EB5886184
S11309608EBD8FB5806A8FBD8FEF93E097BD86BD36
S1130970089587B3806687BBE1E6F0E080818F60ED
S11309808083E2E6F0E08081807F808380818560DF
S113099080830895E2E6F0E08081807F8083808117
S11309A08F60808308959C01E2E6F0E09081907F5F
S11309B0908390819560908339BD28BD3BBD2ABD4D
S11309C008959C01E2E6F0E09081907F908390810D
S11309D09A60908339BD28BD3BBD2ABD0895CF934D
S11309E0DF93EC0180E090E0DEDF1BBC1ABCD9BDD4
S11309F0C8BDDF91CF910895CF93DF93EC0180E0E0
S1130A0090E0D1DFDBBDCABD19BC18BCDF91CF912A
S1130A100895CF93DF93EC0180E090E0D2DF8CE285
S1130A2091E09BBD8ABDD9BDC8BDDF91CF9108952A
S1130A30CF93DF93EC0180E090E0C3DFDBBDCABD60
S1130A408CE291E099BD88BDDF91CF9108959C011E
S1130A50E2E6F0E09081907F9083908196609083AD
S1130A6039BD28BD3BBD2ABD08959C01E2E6F0E0F6
S1130A709081907F908390819960908339BD28BD47
S1130A803BBD2ABD08951F920F920FB60F921124F9
S1130A900BB60F922F933F934F935F936F937F9374
S1130AA08F939F93AF93BF93EF93FF93CF93DF9372
S1130AB01F92CDB7DEB78CB1898389818A3049F51D
S1130AC020913D0230913E02C901019690933E026D
S1130AD080933D028091290290912A0248E2429F2C
S1130AE0F001439FF00D1124E15CFD4FE80FF91F65
S1130AF0108280913D0290913E026AE070E0C7D17D
S1130B0090933E0280933D0210922A021092290291
S1130B101CC060913D0270913E0280912902909127
S1130B202A029C012F5F3F4F30932A02209329020F
S1130B30498158E2569F9001579F300D1124215C42
S1130B403D4FF901E80FF91F40830F90DF91CF91DA
S1130B50FF91EF91BF91AF919F918F917F916F9191
S1130B605F914F913F912F910F900BBE0F900FBE4D
S1130B700F901F901895109290008FEC89B9599A94
S1130B80E5E9F0E08081866080838AB188698AB96A
S1130B901092D0031092CF0310923E0210923D02A5
S1130BA008955D9BFECF8CB908951F920F920FB6E6
S1130BB00F9211248F9380912B0280932C028091A9
S1130BC09C0080932B028F910F900FBE0F901F906B
S1130BD01895109298008FEC80939900EBE9F0E05F
S1130BE0808182608083EDE9F0E08081866080838B
S1130BF0EAE9F0E0808188698083089581E090E0EB
S1130C009093340280933302D89885E08A95F1F763
S1130C100000D89A80E58A95F1F7D898089581E084
S1130C2090E09093340280933302D99885E08A95BA
S1130C30F1F70000D99A80E58A95F1F7D9980895DB
S1130C4081E090E09093340280933302DA9885E057
S1130C508A95F1F70000DA9A80E58A95F1F7DA9837
S1130C6008951F920F920FB60F9211248F939F93A2
S1130C7080912F02909130020196909330028093DC
S1130C802F029F918F910F900FBE0F901F90189578
S1130C901F920F920FB60F9211248F939F9385E0AA
S1130CA08A95F1F700000C9B06C014BC1092300228
S1130CB010922F022AC084B590E090933202809360
S1130CC0310280912F029091300290932E028093F2
S1130CD02D02181619063CF48CE291E09093380228
S1130CE08093370208C08091310290913202909330
S1130CF038028093370281E090E09093360280932B
S1130D00350210923402109233029F918F910F900A
S1130D100FBE0F901F9018951F920F920FB60F924F
S1130D2011248F939F9385E08A95F1F700000D9B22
S1130D3006C014BC1092300210922F022AC084B54F
S1130D4090E0909332028093310280912F0290912F
S1130D50300290932E0280932D02181619063CF44B
S1130D608CE291E090933A028093390208C080911A
S1130D7031029091320290933A028093390282E0D8
S1130D8090E09093360280933502109234021092D0
S1130D9033029F918F910F900FBE0F901F90189563
S1130DA01F920F920FB60F9211248F939F9385E099
S1130DB08A95F1F700000E9B06C014BC1092300215
S1130DC010922F0228C084B590E090933202809351
S1130DD0310280912F029091300290932E028093E1
S1130DE02D02181619063CF48CE291E090933C0213
S1130DF080933B0208C0809131029091320290931B
S1130E003C0280933B0210923602109235021092FB
S1130E103402109233029F918F910F900FBE0F9066
S1130E201F9018958AB387608ABB82B18F7882B984
S1130E308AB785618ABF85B5856085BD89B78067B6
S1130E4089BF87B7806487BF0895809133029091EA
S1130E503402892B89F41092260210922502E09123
S1130E603502F0913602EE0FFF1FE656FE4F019059
S1130E70F081E02D09950895809125029091260234
S1130E80049724F01092340210923302089597FBD1
S1130E90072E16F4009406D077FD08D014D007FC72
S1130EA005D03EF4909581959F4F08957095619576
S1130EB07F4F0895EE0FFF1F0024001C0BBE079008
S1130EC0F691E02D0994AA1BBB1B51E107C0AA1F90
S1130ED0BB1FA617B70710F0A61BB70B881F991FD7
S1130EE05A95A9F780959095BC01CD010895F89481
S1050EF0FFCF2E
S1130EF28E00FF00FF00FF008300FF00FF00FF00E1
S1130F02C700FF00FF00FF008800FF00FF00FF0092
S1130F129200FF00FF00FF008300FF00C700FF00F4
S1130F228300FF008800FF00FF00FF00C700C70026
S1130F32FF00FF0088008800A001AC01BB01C901C9
S1130F42D101D901E101E901F101F9010102090229
S1130F5218026400C8002C019001F4015802BC027A
S1130F6220038403E803FB01A802D304E104EF0491
S1130F72FC04CA040905180527053505000000020A
S1130F8200000000D10500000000FE050F06200647
S1130F926D616E75616C206D6F6465006175746F4F
S1130FA26D61746963206D6F646500737065656457
S1130FB2203120286D696E290073706565642032C2
S1130FC20073706565642033007370656564203452
S1130FD2007370656564203500737065656420363E
S1130FE2007370656564203700737065656420382A
S1130FF2007370656564203900737065656420311F
S11110023020286D6178290073746F7000002F
S9030000FC
