:1000000079C0000095C0000093C0000091C00000BE
:100010008FC000006FC50000F5C500007BC6000062
:1000200087C0000085C000004EC5000081C00000F0
:100030007FC000007DC000007BC0000079C00000D0
:10004000E6C2000075C0000050C4000071C000008E
:100050006FC000006DC000006BC0000069C00000F0
:1000600067C0000065C0000063C0000061C0000000
:100070005FC000005DC00000CAC4000059C000009D
:1000800057C0000055C0000053C00000D701100247
:10009000FF011002D2011002100210021002100221
:1000A000DE0110021002100210021002E50110021F
:1000B0001002EC01100210021002100210021002D5
:1000C000100210021002100210021002D7011002DA
:1000D000FF011002D20110021002100210021002E1
:1000E000DE0110021002100210021002E5011002DF
:1000F0001002EC0111241FBECFEFD0E1DEBFCDBF57
:1001000011E0A0E0B1E0E6E5F7E100E00BBF02C0DE
:1001100007900D92A23FB107D9F723E0A2EFB1E01B
:1001200001C01D92A93AB207E1F799D20C94A90B2C
:1001300067CFD398089549B321E030E002C0220F81
:10014000331F6A95E2F750E024233523232BB9F0BF
:10015000FC01EE50FE4F2081211127C02FEF3DEE14
:1001600042E0215030404040E1F700C00000FC0177
:10017000EE50FE4F21E0208380E090E00895FC01E6
:10018000EE50FE4F2081213099F42FEF3DEE42E0FA
:10019000215030404040E1F700C00000FC01EE502B
:1001A000FE4F108281E090E0089580E090E0089595
:1001B00080E090E008959FEF94BB8AB3806F8ABB84
:1001C00095BB0895DC9A85BB0895809370000895CF
:1001D00084EA80937400E4E7F0E080818823ECF700
:1001E00008958093730084E880937400E4E7F0E05E
:1001F00080818823ECF70895CF93DF93D82FC62F03
:10020000E7DF8D2FEEDF8C2FECDF84E98093740025
:10021000DF91CF910895EF92FF920F931F93CF93A9
:10022000DF9300D000D0CDB7DEB7282F207F30E19C
:10023000839FC0011124922F9D60998329602A8396
:10024000982F9D609B8389608C838E010F5F1F4F69
:100250007E0185E0E80EF11CF80161918F018EE4CA
:10026000CBDF0E151F05C1F70F900F900F900F9069
:10027000DF91CF911F910F91FF90EF900895EF9232
:10028000FF920F931F93CF93DF9300D000D0CDB791
:10029000DEB7282F207F30E1839FC0011124922FE9
:1002A0009C60998328602A83982F9C609B83886038
:1002B0008C838E010F5F1F4F7E0185E0E80EF11CDD
:1002C000F80161918F018EE497DF0E151F05C1F7CC
:1002D0000F900F900F900F90DF91CF911F910F9182
:1002E000FF90EF90089581E0CADF8FE39FE10197CF
:1002F000F1F700C00000089580E197E266DF2FEF7C
:1003000080E792E0215080409040E1F700C000007B
:1003100083E3B5DF82E3B3DF88E2B1DF8CE0AFDFF8
:1003200086E0ADDF81E0ABDF8FE39CE90197F1F779
:1003300000C0000008950F931F93CF93FC018081AC
:10034000882351F08F01C0E066DFCF5FF801EC0F2A
:10035000F11D80818111F8CFCF911F910F910895E8
:1003600081706F7090E4899F600D1124862F8058F2
:1003700086CF0895CF93DF93EA01F2DFCE01DBDF72
:10038000DF91CF910895DC01E091FB014E2F50E009
:10039000FA01E254F109E433F10508F041C0EA5BE7
:1003A000FF4FCAC613961C921E92129787C081E017
:1003B00090E013969C938E93129780C082E090E019
:1003C00013969C938E93129779C083E090E01396D6
:1003D0009C938E93129772C014968D919C91159751
:1003E00001968A30910514F089E090E015969C936F
:1003F0008E9314978091FC018093FB0120C014968A
:100400008D919C911597019712F480E090E01596DC
:100410009C938E9314978091FC018093FB010FC0F5
:1004200084E090E013969C938E931297809108013C
:10043000909109011B969C938E931A9721C0129656
:100440002D913C911397F901EE0FFF1FE050FF4FE4
:10045000808191811B969C938E931A97243031054D
:1004600079F01496ED91FC911597EE0FFF1FEE5E5B
:10047000FE4F8081918119969C938E9318970AC0A4
:10048000809126019091270119969C938E9318973D
:1004900024E030E014960D90BC91A02DAA0FBB1F54
:1004A000A85DBE4F220F331FF901E05CFE4F0190A3
:1004B000F081E02D8D919C910995089512962D91D2
:1004C0003C911397F901EE0FFF1FE050FF4F808121
:1004D00091811B969C938E931A97C3CFCF93DF93F2
:1004E000EC01B1D48091090290910A02892B89F024
:1004F00080910B0290910C02892B59F080910D0292
:1005000090910E02892B29F086E090E09B838A83EC
:1005100057C08091090290910A02892BA9F4809119
:100520000B0290910C02892B79F080910D02909131
:100530000E02892B49F489E090E09D838C8383E04F
:1005400090E09B838A833CC08091090290910A02CB
:10055000892B31F080910B0290910C02892B31F4A0
:100560008091090290910A02892B49F089E090E07C
:100570009D838C8383E090E09B838A8321C080915C
:100580000B0290910C02892B31F080910D02909119
:100590000E02892B31F480910D0290910E02892B6D
:1005A00049F089E090E09D838C8382E090E09B831A
:1005B0008A8306C082E090E09D838C831B821A822E
:1005C0002A813B81220F331FF901E050FF4F8081C8
:1005D00091819B878A878C819D81FC01EE0FFF1F93
:1005E000EE5EFE4F4081518159874887880F991FE1
:1005F000DC01A85DBE4FF901E05CFE4F0190F08187
:10060000E02D8D919C910995DF91CF9108951F92D6
:100610000F920FB60F9211248F939F9386E082BFA3
:100620008091F7019091F80101969093F8018093E1
:10063000F70181E090E09093F4018093F3019F91A2
:100640008F910F900FBE0F901F90189586E082BF7C
:1006500083B7846083BF87B7816087BF0895CF93D6
:10066000DF93CDB7DEB72C970FB6F894DEBF0FBE81
:10067000CDBFECDFBFD0CFD0DED1AFD1D1D359DDEC
:100680003BDE99DD78948EE491E09093A60380930D
:10069000A5031A82198284E090E09C838B8383E017
:1006A00090E09E838D83EEE0F1E0808191819887D8
:1006B0008F83828593859A8789878091080190919D
:1006C00009019C878B8780E090E0B6D00F2EF4E67E
:1006D000CF2ED12CF02D0EE011E00F2EF0E0EF2EFA
:1006E000F1E0FF2EF02D6894882481F8912C689415
:1006F000662462F8712CAA24A394B12C8091F30192
:100700009091F401892BD1F01092F4011092F30131
:100710008B859C8557DD8091F7019091F801B6019A
:10072000F8D4892B59F4DFDD4F81588560E080E0F3
:1007300021DE49855A8560E081E01CDE63E070E0DF
:1007400080E090E0F8DC892B99F189819A8100970B
:10075000A9F4BA82A9821C821B829E828D82F80132
:100760008281938198878F83868197819A878987F1
:10077000F701808191819C878B871AC00197C1F412
:100780001092FB011A8219827C826B8283E090E0D6
:100790009E838D83F8018081918198878F83808DDE
:1007A000918D9A878987F701808591859C878B87B2
:1007B000E981FA81EE0FFF1FE45CFE4F0190F081AA
:1007C000E02DCE01019609958091F7019091F801F5
:1007D000893E93400CF492CF1092F8011092F701E9
:1007E0008091F5019091F60101969093F601809326
:1007F000F50184CF8EB583608EBD8FB582608FBDCD
:100800008EB588618EBD8FB5806A8FBD8FEF93E006
:1008100097BD86BD089587B3806687BBE1E6F0E0AB
:1008200080818F608083E2E6F0E08081807F80833A
:100830008081856080830895E2E6F0E08081807F9A
:10084000808380818F60808308959C01E2E6F0E0E0
:100850009081907F908390819560908339BD28BD71
:100860003BBD2ABD08959C01E2E6F0E09081907FB7
:10087000908390819A60908339BD28BD3BBD2ABD8D
:100880000895CF93DF93EC0180E090E0DEDF1BBCA6
:100890001ABCD9BDC8BDDF91CF910895CF93DF9326
:1008A000EC0180E090E0D1DFDBBDCABD19BC18BC13
:1008B000DF91CF910895CF93DF93EC0180E090E03A
:1008C000D2DF1BBC1ABCD9BDC8BDDF91CF91089542
:1008D000CF93DF93EC0180E090E0C5DFDBBDCABDC4
:1008E00019BC18BCDF91CF9108951F920F920FB6DB
:1008F0000F9211240BB60F922F933F934F935F9358
:100900006F937F938F939F93AF93BF93EF93FF93D7
:10091000CF93DF931F92CDB7DEB78CB189838981E6
:100920008A3049F520910F0230911002C9010196D9
:100930009093100280930F028091F9019091FA0137
:1009400048E2429FF001439FF00D1124EF5EFD4FFE
:10095000E80FF91F108280910F02909110026AE057
:1009600070E0D7D39093100280930F021092FA0197
:100970001092F9011CC060910F02709110028091D9
:10098000F9019091FA019C012F5F3F4F3093FA01DA
:100990002093F901498158E2569F9001579F300DED
:1009A00011242F5E3D4FF901E80FF91F40830F908E
:1009B000DF91CF91FF91EF91BF91AF919F918F9177
:1009C0007F916F915F914F913F912F910F900BBE4F
:1009D0000F900FBE0F901F901895109290008FEC03
:1009E00089B9599AE5E9F0E08081866080838AB10F
:1009F00088698AB91092A2031092A1031092100282
:100A000010920F0208955D9BFECF8CB908951F923E
:100A10000F920FB60F9211248F938091FB01809358
:100A2000FC0180919C008093FB018F910F900FBE81
:100A30000F901F901895109298008FEC809399005A
:100A4000EBE9F0E0808182608083EDE9F0E0808175
:100A500086608083EAE9F0E0808188698083089578
:100A600081E090E09093060280930502D89885E09B
:100A70008A95F1F70000D89A80E58A95F1F7D89821
:100A8000089581E090E09093060280930502D99842
:100A900085E08A95F1F70000D99A80E58A95F1F70B
:100AA000D998089581E090E0909306028093050222
:100AB000DA9885E08A95F1F70000DA9A80E58A9560
:100AC000F1F7DA9808951F920F920FB60F92112442
:100AD0008F939F938091FF019091000201969093D4
:100AE00000028093FF019F918F910F900FBE0F9096
:100AF0001F9018951F920F920FB60F9211240BB6EC
:100B00000F922F933F934F935F936F937F938F93A6
:100B10009F93AF93BF93EF93FF9385E08A95F1F78F
:100B200000000C9B06C014BC109200021092FF0142
:100B300056C084B590E090930202809301028091A8
:100B4000FF01909100029093FE018093FD01181621
:100B500019063CF484E690E090930402809303022B
:100B600023C06091010270910202072E000C880BD5
:100B7000990BE0D120E030E040E053E43FD220E0A8
:100B800030E040E85DE33AD2A2D170930402609372
:100B9000030280910302909104026AE370E0B9D2EB
:100BA0007093040260930302809103029091040207
:100BB00004973CF481E090E090930A02809309024C
:100BC00004C010920A021092090281E090E0909312
:100BD0000802809307021092060210920502FF910C
:100BE000EF91BF91AF919F918F917F916F915F91A5
:100BF0004F913F912F910F900BBE0F900FBE0F9012
:100C00001F9018951F920F920FB60F9211240BB6DA
:100C10000F922F933F934F935F936F937F938F9395
:100C20009F93AF93BF93EF93FF9385E08A95F1F77E
:100C300000000D9B06C014BC109200021092FF0130
:100C400056C084B590E09093020280930102809197
:100C5000FF01909100029093FE018093FD01181610
:100C600019063CF484E690E090930402809303021A
:100C700023C06091010270910202072E000C880BC4
:100C8000990B58D120E030E040E053E4B7D120E0A8
:100C900030E040E85DE3B2D11AD170930402609372
:100CA000030280910302909104026AE370E031D262
:100CB00070930402609303028091030290910402F6
:100CC00004973CF481E090E090930C0280930B0237
:100CD00004C010920C0210920B0282E090E09093FC
:100CE0000802809307021092060210920502FF91FB
:100CF000EF91BF91AF919F918F917F916F915F9194
:100D00004F913F912F910F900BBE0F900FBE0F9000
:100D10001F9018951F920F920FB60F9211240BB6C9
:100D20000F922F933F934F935F936F937F938F9384
:100D30009F93AF93BF93EF93FF9385E08A95F1F76D
:100D400000000E9B06C014BC109200021092FF011E
:100D500054C084B590E09093020280930102809188
:100D6000FF01909100029093FE018093FD011816FF
:100D700019063CF484E690E0909304028093030209
:100D800023C06091010270910202072E000C880BB3
:100D9000990BD0D020E030E040E053E42FD120E0A8
:100DA00030E040E85DE32AD192D070930402609372
:100DB000030280910302909104026AE370E0A9D1DA
:100DC00070930402609303028091030290910402E5
:100DD00004973CF481E090E090930E0280930D0222
:100DE00004C010920E0210920D021092080210928E
:100DF00007021092060210920502FF91EF91BF9137
:100E0000AF919F918F917F916F915F914F913F91A2
:100E10002F910F900BBE0F900FBE0F901F90189543
:100E20008AB387608ABB82B18F7882B98AB78561BD
:100E30008ABF85B5856085BD89B7806789BF87B75B
:100E4000806487BF08958091050290910602892BE6
:100E500099F5209101023091020280910302909154
:100E600004023F932F932091FE012F932091FD01C7
:100E70002F939F938F938FED91E09F938F9379D1D1
:100E800089EE91E089D11092F6011092F501E0917E
:100E90000702F0910802EE0FFF1FE45AFE4F019087
:100EA000F081E02D09958DB79EB708960FB6F8949E
:100EB0009EBF0FBE8DBF08958091F5019091F60100
:100EC000049724F01092060210920502089504D0AF
:100ED0006894B1118DC0089570D088F09F5790F03C
:100EE000B92F9927B751A0F0D1F0660F771F881F4F
:100EF000991F1AF0BA95C9F712C0B13081F077D0B6
:100F0000B1E0089574C0672F782F8827B85F39F053
:100F1000B93FCCF3869577956795B395D9F73EF4AD
:100F200090958095709561957F4F8F4F9F4F089555
:100F3000E89409C097FB3EF4909580957095619573
:100F40007F4F8F4F9F4F9923A9F0F92F96E9BB2729
:100F50009395F695879577956795B795F111F8CFA5
:100F6000FAF4BB0F11F460FF1BC06F5F7F4F8F4F10
:100F70009F4F16C0882311F096E911C0772321F006
:100F80009EE8872F762F05C0662371F096E8862F9E
:100F900070E060E02AF09A95660F771F881FDAF7F5
:100FA000880F9695879597F9089557FD9058440FA7
:100FB000551F59F05F3F71F04795880F97FB991FB8
:100FC00061F09F3F79F08795089512161306140675
:100FD000551FF2CF4695F1DF08C016161706180602
:100FE000991FF1CF86957105610508940895E894DD
:100FF000BB2766277727CB0197F908950BD078C0D8
:1010000069D028F06ED018F0952309F05AC05FC05F
:101010001124EECFCADFA0F3959FD1F3950F50E0D6
:10102000551F629FF001729FBB27F00DB11D639F9A
:10103000AA27F00DB11DAA1F649F6627B00DA11D40
:10104000661F829F2227B00DA11D621F739FB00DE6
:10105000A11D621F839FA00D611D221F749F332756
:10106000A00D611D231F849F600D211D822F762FEF
:101070006A2F11249F5750408AF0E1F088234AF0EC
:10108000EE0FFF1FBB1F661F771F881F9150504038
:10109000A9F79E3F510570F014C0AACF5F3FECF353
:1010A000983EDCF3869577956795B795F795E79524
:1010B0009F5FC1F7FE2B880F911D9695879597F935
:1010C000089597F99F6780E870E060E008959FEFCA
:1010D00080EC089500240A941616170618060906CF
:1010E000089500240A94121613061406050608959E
:1010F000092E0394000C11F4882352F0BB0F40F426
:10110000BF2B11F460FF04C06F5F7F4F8F4F9F4F65
:10111000089597FB072E16F4009406D077FD08D0AB
:1011200014D007FC05D03EF4909581959F4F08950B
:10113000709561957F4F0895EE0FFF1F0024001CEE
:101140000BBE0790F691E02D0994AA1BBB1B51E141
:1011500007C0AA1FBB1FA617B70710F0A61BB70B27
:10116000881F991F5A95A9F780959095BC01CD01CC
:101170000895CF93DF93CDB7DEB7AE014B5F5F4FDE
:10118000FA0161917191AF018091A5039091A6033D
:1011900033D0DF91CF9108950F931F93CF93DF93B7
:1011A000E091A503F091A603238121FF1BC08C01D0
:1011B000D0E0C0E0F80181918F016091A5037091AA
:1011C000A603DB011896ED91FC911997882331F065
:1011D0000995892B79F3DFEFCFEFECCF8AE0099502
:1011E000892B19F08FEF9FEF02C08D2F9C2FDF917D
:1011F000CF911F910F9108952F923F924F925F923E
:101200006F927F928F929F92AF92BF92CF92DF9216
:10121000EF92FF920F931F93CF93DF93CDB7DEB77B
:101220002B970FB6F894DEBF0FBECDBF6C017B01CC
:101230008A01FC0117821682838181FFBFC1CE0122
:1012400001963C01F6019381F70193FD859193FF8F
:1012500081917F01882309F4ADC1853239F493FD72
:10126000859193FF81917F01853221F4B60190E051
:10127000D6D1E8CF912C212C312CFFE1F315D8F0F9
:101280008B3279F038F4803279F08332A1F4232D57
:1012900020611DC08D3261F0803369F4232D2160FF
:1012A00016C0832D8260382EE32DE4603E2E2AC0C6
:1012B000F32DF8601DC037FC2DC020ED280F2A301B
:1012C00040F08E32B9F436FC75C1232D2064322EE5
:1012D00019C036FE06C08AE0989E200D1124922E79
:1012E00011C0EAE02E9E200D1124222EF32DF06273
:1012F0003F2E08C08C3621F4832D8068382E02C022
:10130000883641F4F70193FD859193FF81917F0128
:101310008111B3CF982F9F7D9554933028F40C5FA3
:101320001F4F9FE399830DC0833631F0833771F0EF
:10133000833509F055C020C0F801808189830E5F94
:101340001F4F88248394912C530112C02801F2E08E
:101350004F0E511CF801A080B18036FE03C0692DEC
:1013600070E002C06FEF7FEFC5014ED14C018201EA
:10137000F32DFF773F2E15C0280122E0420E511CAD
:10138000F801A080B18036FE03C0692D70E002C074
:101390006FEF7FEFC5012DD14C01F32DF0683F2E8B
:1013A000820133FC19C0822D90E088169906A0F4C2
:1013B000B60180E290E033D12A94F5CFF50137FCF5
:1013C000859137FE81915F01B60190E028D121100F
:1013D0002A9421E0821A91088114910479F7E1C0DE
:1013E000843611F0893639F5F80137FE07C060817F
:1013F0007181828193810C5F1F4F08C06081718170
:10140000072E000C880B990B0E5F1F4FF32DFF76F4
:101410003F2E97FF09C090958095709561957F4FFD
:101420008F4F9F4FF0683F2E2AE030E0A30133D169
:10143000882E861844C0853731F4232D2F7EB22E96
:101440002AE030E025C0932D997FB92E8F36C1F068
:1014500018F4883579F0AEC0803719F0883721F05C
:10146000A9C0E92FE061BE2EB4FE0DC0FB2DF460D3
:10147000BF2E09C034FE0AC0292F2660B22E06C036
:1014800028E030E005C020E130E002C020E132E099
:10149000F801B7FE07C060817181828193810C5F82
:1014A0001F4F06C06081718180E090E00E5F1F4F8A
:1014B000A301F1D0882E8618FB2DFF773F2E36FE34
:1014C0000DC0232D2E7FA22E891458F434FE0BC09C
:1014D00032FC09C0832D8E7EA82E05C0B82CA32C0B
:1014E00003C0B82C01C0B92CA4FE0FC0FE01E80D4A
:1014F000F11D8081803321F49A2D997EA92E09C097
:10150000A2FE06C0B394B39404C08A2D867809F075
:10151000B394A3FC10C0A0FE06C0B21480F4280C43
:10152000922C9B180DC0B21458F4B60180E290E0E2
:1015300076D0B394F8CFB21418F42B1802C0982CBC
:10154000212CA4FE0FC0B60180E390E068D0A2FE7B
:1015500016C0A1FC03C088E790E002C088E590E0D7
:10156000B6010CC08A2D867851F0A1FE02C08BE234
:1015700001C080E2A7FC8DE2B60190E050D0891452
:1015800030F4B60180E390E04AD09A94F8CF8A9480
:10159000F301E80DF11D8081B60190E040D081108B
:1015A000F6CF222009F44ECEB60180E290E037D08B
:1015B0002A94F7CFF6018681978102C08FEF9FEFC3
:1015C0002B960FB6F894DEBF0FBECDBFDF91CF9143
:1015D0001F910F91FF90EF90DF90CF90BF90AF9051
:1015E0009F908F907F906F905F904F903F902F9043
:1015F0000895FC010590615070400110D8F7809566
:1016000090958E0F9F1F0895FC01615070400190CE
:101610000110D8F7809590958E0F9F1F08950F9316
:101620001F93CF93DF93FB01238121FD03C08FEF35
:101630009FEF2CC022FF16C046815781248135813F
:101640004217530744F4A081B1819D012F5F3F4FA2
:10165000318320838C93268137812F5F3F4F3783DF
:10166000268314C08B01EC01FB010084F185E02D81
:101670000995892BE1F6D80116968D919C911797C3
:10168000019617969C938E931697CE01DF91CF917A
:101690001F910F910895FA01AA27283051F12031A6
:1016A00081F1E8946F936E7F6E5F7F4F8F4F9F4FF6
:1016B000AF4FB1E03ED0B4E03CD0670F781F891F38
:1016C0009A1FA11D680F791F8A1F911DA11D6A0F06
:1016D000711D811D911DA11D20D009F468943F91B9
:1016E0002AE0269F11243019305D3193DEF6CF01B8
:1016F0000895462F4770405D4193B3E00FD0C9F77E
:10170000F6CF462F4F70405D4A3318F0495D31FDEA
:101710004052419302D0A9F7EACFB4E0A69597953D
:10172000879577956795BA95C9F700976105710513
:1017300008959B01AC010A2E06945795479537955D
:101740002795BA95C9F7620F731F841F951FA01DB7
:061750000895F894FFCF9C
:101756008E008300C7008800920083008300620128
:101766006E017D018B0193019B01A301AB01B301C6
:10177600BB01C301CB01DA016400C8002C01900152
:10178600F4015802BC0220038403E803C3016E027D
:101796002504330441044E041C045B046804000061
:1017A60000020000000003050000000030054105AE
:1017B60052056D616E75616C206D6F6465006175B3
:1017C600746F6D61746963206D6F64650073706515
:1017D6006564203120286D696E2900737065656423
:1017E600203200737065656420330073706565642C
:1017F6002034007370656564203500737065656418
:101806002036007370656564203700737065656403
:1018160020380073706565642039007370656564EF
:1018260020313020286D6178290073746F7000258F
:10183600642C25642C25640A000A7472696767653E
:0218460072002E
:00000001FF
