:1000000079C0000095C0000093C0000091C00000BE
:100010008FC0000005C50000A6C5000049C600004D
:1000200087C0000085C00000E4C4000081C000005B
:100030007FC000007DC000007BC0000079C00000D0
:10004000B9C2000075C00000E6C3000071C0000026
:100050006FC000006DC000006BC0000069C00000F0
:1000600067C0000065C0000063C0000061C0000000
:100070005FC000005DC0000060C4000059C0000007
:1000800057C0000055C0000053C00000CD0106025B
:10009000F5010602C8010602060206020602060271
:1000A000D40106020602060206020602DB0106026F
:1000B0000602E20106020602060206020602060225
:1000C000060206020602060206020602CD0106022A
:1000D000F5010602C8010602060206020602060231
:1000E000D40106020602060206020602DB0106022F
:1000F0000602E20111241FBECFEFD0E1DEBFCDBF6B
:1001000011E0A0E0B1E0E8EBF7E100E00BBF02C0D6
:1001100007900D92A03EB107D9F723E0A0EEB1E021
:1001200001C01D92A539B207E1F76CD20C94DA0B2D
:1001300067CFD398089549B321E030E002C0220F81
:10014000331F6A95E2F750E024233523232BB9F0BF
:10015000FC01E052FE4F2081211127C02FEF3DEE20
:1001600042E0215030404040E1F700C00000FC0177
:10017000E052FE4F21E0208380E090E00895FC01F2
:10018000E052FE4F2081213099F42FEF3DEE42E006
:10019000215030404040E1F700C00000FC01E05237
:1001A000FE4F108281E090E0089580E090E0089595
:1001B00080E090E0089580937000089584EA809331
:1001C0007400E4E7F0E080818823ECF708958093E1
:1001D000730084E880937400E4E7F0E08081882372
:1001E000ECF70895CF93DF93D82FC62FE7DF8D2F3D
:1001F000EEDF8C2FECDF84E980937400DF91CF91E8
:100200000895EF92FF920F931F93CF93DF9300D047
:1002100000D0CDB7DEB7282F207F30E1839FC0010B
:100220001124922F9D60998329602A83982F9D60C5
:100230009B8389608C838E010F5F1F4F7E0185E059
:10024000E80EF11CF80161918F018EE4CBDF0E15F1
:100250001F05C1F70F900F900F900F90DF91CF9176
:100260001F910F91FF90EF900895EF92FF920F93DF
:100270001F93CF93DF9300D000D0CDB7DEB7282FE8
:10028000207F30E1839FC0011124922F9C609983CD
:1002900028602A83982F9C609B8388608C838E01C2
:1002A0000F5F1F4F7E0185E0E80EF11CF8016191A0
:1002B0008F018EE497DF0E151F05C1F70F900F9089
:1002C0000F900F90DF91CF911F910F91FF90EF90C2
:1002D000089581E0CADF8FE39FE10197F1F700C045
:1002E0000000089580E197E266DF2FEF80E792E05B
:1002F000215080409040E1F700C0000083E3B5DF6B
:1003000082E3B3DF88E2B1DF8CE0AFDF86E0ADDF10
:1003100081E0ABDF8FE39CE90197F1F700C00000BB
:1003200008950F931F93CF93FC018081882351F090
:100330008F01C0E066DFCF5FF801EC0FF11D808117
:100340008111F8CFCF911F910F91089581706F7037
:1003500090E4899F600D1124862F805886CF0895E0
:10036000CF93DF93EA01F2DFCE01DBDFDF91CF91A4
:100370000895DC01E091E7014E2F50E0FA01E254CC
:10038000F109E433F10508F041C0EA5BFF4F05C70E
:1003900013961C921E92129774C081E090E01396FF
:1003A0009C938E9312976DC082E090E013969C937D
:1003B0008E93129766C083E090E013969C938E9381
:1003C00012975FC014968D919C91159701968A3073
:1003D000910514F089E090E015969C938E93149704
:1003E0008091E8018093E70118C014968D919C914B
:1003F0001597019712F480E090E015969C938E93E8
:1004000014978091E8018093E70107C084E090E0B1
:1004100013969C938E93129716C012962D913C9131
:1004200013972430310579F01496ED91FC911597CE
:10043000EE0FFF1FEC5FFE4F8081918119969C9318
:100440008E9318970AC080911801909119011996FE
:100450009C938E93189724E030E014960D90BC91F5
:10046000A02DAA0FBB1FA65EBE4F220F331FF9019E
:10047000EE5CFE4F0190F081E02D8D919C910995ED
:10048000089512962D913C911397CECFCF93DF9381
:10049000EC01C4D48091F5019091F601892B61F0B3
:1004A0008091F7019091F801892B31F08091F90149
:1004B0009091FA01892B91F48091F5019091F601C8
:1004C000892BC9F48091F7019091F801892B99F05B
:1004D0008091F9019091FA01892B69F484E090E010
:1004E0009B838A838091180190911901998788874D
:1004F00084E090E03DC08091F5019091F601892B58
:1005000031F08091F7019091F801892B31F48091BD
:10051000F5019091F601892B49F089E090E09D83E7
:100520008C8383E090E09B838A8334C08091F701C1
:100530009091F801892B31F08091F9019091FA01A5
:10054000892B31F48091F9019091FA01892B49F0BE
:1005500089E090E09D838C8382E090E09B838A8396
:1005600019C082E090E09D838C831B821A8212C0A6
:10057000AC81BD81AA0FBB1FA65EBE4F880F991F1D
:10058000FC01EE5CFE4F0190F081E02D8D919C917D
:1005900009950DC08A819B81EC81FD81EE0FFF1FC3
:1005A000EC5FFE4F2081318139872887E1CFDF91D1
:1005B000CF9108951F920F920FB60F9211248F932F
:1005C0009F9386E082BF8091E3019091E4010196C0
:1005D0009093E4018093E30181E090E09093E20145
:1005E0008093E1019F918F910F900FBE0F901F900C
:1005F000189586E082BF83B7846083BF87B7816028
:1006000087BF0895CF93DF93CDB7DEB72A970FB694
:10061000F894DEBF0FBECDBFECDF9CD0ACD0A1D133
:1006200072D1E9D386DD5EDE78948CE391E090931D
:100630009203809391031A82198284E090E09C8354
:100640008B8383E090E09E838D83E0E0F1E0808106
:10065000918198878F83828593859A87898780E0A7
:1006600090E09AD00F2EF4E6EF2EF12CF02D00E062
:1006700011E06894882482F8912CAA24A394B12CC8
:100680006894CC24C1F8D12C8091E1019091E201D1
:10069000892BB9F01092E2011092E1018091E301FF
:1006A0009091E401B70166D5892B59F412DE4F8190
:1006B000588560E080E054DE49855A8560E081E03D
:1006C0004FDE63E070E080E090E035DD892B49F19A
:1006D00089819A81009781F4BA82A9821C821B8247
:1006E000DE82CD82F8018281938198878F83868113
:1006F00097819A87898715C0019799F41092E7012D
:100700001A8219829C828B8283E090E09E838D8383
:10071000F8018081918198878F83808D918D9A8750
:100720008987E981FA81EE0FFF1FE25DFE4F01909C
:10073000F081E02DCE01019609958091E301909121
:10074000E401893E93400CF49FCF1092E401109293
:10075000E3019ACF8EB583608EBD8FB582608FBD69
:100760008EB588618EBD8FB5806A8FBD8FEF93E0A7
:1007700097BD86BD089587B3806687BBE1E6F0E04C
:1007800080818F608083E2E6F0E08081807F8083DB
:100790008081856080830895E2E6F0E08081807F3B
:1007A000808380818F60808308959C01E2E6F0E081
:1007B0009081907F908390819560908339BD28BD12
:1007C0003BBD2ABD08959C01E2E6F0E09081907F58
:1007D000908390819A60908339BD28BD3BBD2ABD2E
:1007E0000895CF93DF93EC0180E090E0DEDF1BBC47
:1007F0001ABCD9BDC8BDDF91CF910895CF93DF93C7
:10080000EC0180E090E0D1DFDBBDCABD19BC18BCB3
:10081000DF91CF9108951F920F920FB60F9211247E
:100820000BB60F922F933F934F935F936F937F93EA
:100830008F939F93AF93BF93EF93FF93CF93DF93E8
:100840001F92CDB7DEB78CB1898389818A3049F593
:100850002091FB013091FC01C90101969093FC01AC
:100860008093FB018091E5019091E60148E2429F6F
:10087000F001439FF00D1124E350FE4FE80FF91FE4
:1008800010828091FB019091FC016AE070E072D4CB
:100890009093FC018093FB011092E6011092E50118
:1008A0001CC06091FB017091FC018091E501909169
:1008B000E6019C012F5F3F4F3093E6012093E50155
:1008C000498158E2569F9001579F300D11242350C3
:1008D0003E4FF901E80FF91F40830F90DF91CF9150
:1008E000FF91EF91BF91AF919F918F917F916F9108
:1008F0005F914F913F912F910F900BBE0F900FBEC4
:100900000F901F901895109290008FEC89B9599A0A
:10091000E5E9F0E08081866080838AB188698AB9E0
:1009200010928E0310928D031092FC011092FB0125
:1009300008955D9BFECF8CB908951F920F920FB65C
:100940000F9211248F938091E7018093E8018091A9
:100950009C008093E7018F910F900FBE0F901F9026
:100960001895109298008FEC80939900EBE9F0E0D5
:10097000808182608083EDE9F0E080818660808301
:10098000EAE9F0E0808188698083089581E090E061
:100990009093F2018093F101D89885E08A95F1F760
:1009A0000000D89A80E58A95F1F7D898089581E0FB
:1009B00090E09093F2018093F101D99885E08A95B7
:1009C000F1F70000D99A80E58A95F1F7D998089552
:1009D00081E090E09093F2018093F101DA9885E054
:1009E0008A95F1F70000DA9A80E58A95F1F7DA98AE
:1009F00008951F920F920FB60F9211248F939F9319
:100A00008091EB019091EC0101969093EC01809321
:100A1000EB019F918F910F900FBE0F901F90189533
:100A20001F920F920FB60F9211240BB60F92CF9216
:100A3000DF92EF92FF922F933F934F935F936F93C9
:100A40007F938F939F93AF93BF93CF93DF93EF9356
:100A5000FF9380914E0190914F01892B51F014BC6E
:100A600010924F0110924E011092EC011092EB0186
:100A700061C084B590E09093EE018093ED016091A8
:100A8000EB017091EC017093EA016093E901C09170
:100A9000ED01D091EE01072E000C880B990B7BD253
:100AA00020E030E040E853E402D36B017C01BE015A
:100AB000DD0F880B990B6FD29B01AC01C701B6010A
:100AC000D3D120E030E040E053E4F1D220E030E048
:100AD00040E85DE3ECD22CD27093F0016093EF011B
:100AE0008091EF019091F0016AE370E043D370933D
:100AF000F0016093EF018091EF019091F001079771
:100B00003CF481E090E09093F6018093F50104C0FD
:100B10001092F6011092F50181E090E090934F0160
:100B200080934E019093F4018093F3011092F201AF
:100B30001092F101FF91EF91DF91CF91BF91AF91B1
:100B40009F918F917F916F915F914F913F912F91E5
:100B5000FF90EF90DF90CF900F900BBE0F900FBEE5
:100B60000F901F9018951F920F920FB60F9211249D
:100B70000BB60F92CF92DF92EF92FF922F933F939B
:100B80004F935F936F937F938F939F93AF93BF9395
:100B9000CF93DF93EF93FF9380914C0190914D01A0
:100BA000892B51F014BC10924D0110924C011092FF
:100BB000EC011092EB0163C084B590E09093EE01DC
:100BC0008093ED016091EB017091EC017093EA016B
:100BD0006093E901C091ED01D091EE01072E000C68
:100BE000880B990BD8D120E030E040E853E45FD285
:100BF0006B017C01BE01DD0F880B990BCCD19B01F1
:100C0000AC01C701B60130D120E030E040E053E450
:100C10004ED220E030E040E85DE349D289D17093C4
:100C2000F0016093EF018091EF019091F0016AE390
:100C300070E0A0D27093F0016093EF018091EF011A
:100C40009091F00107973CF481E090E09093F801D7
:100C50008093F70104C01092F8011092F70181E02F
:100C600090E090934D0180934C0182E090E090934E
:100C7000F4018093F3011092F2011092F101FF91BF
:100C8000EF91DF91CF91BF91AF919F918F917F9124
:100C90006F915F914F913F912F91FF90EF90DF9077
:100CA000CF900F900BBE0F900FBE0F901F90189516
:100CB0001F920F920FB60F9211240BB60F92CF9284
:100CC000DF92EF92FF922F933F934F935F936F9337
:100CD0007F938F939F93AF93BF93CF93DF93EF93C4
:100CE000FF9380914A0190914B01892B51F014BCE4
:100CF00010924B0110924A011092EC011092EB01FC
:100D000061C084B590E09093EE018093ED01609115
:100D1000EB017091EC017093EA016093E901C091DD
:100D2000ED01D091EE01072E000C880B990B33D109
:100D300020E030E040E853E4BAD16B017C01BE0111
:100D4000DD0F880B990B27D19B01AC01C701B601C0
:100D50008BD020E030E040E053E4A9D120E030E047
:100D600040E85DE3A4D1E4D07093F0016093EF011B
:100D70008091EF019091F0016AE070E0FBD17093F7
:100D8000F0016093EF018091EF019091F0010797DE
:100D90003CF481E090E09093FA018093F90104C063
:100DA0001092FA011092F90181E090E090934B01CA
:100DB00080934A011092F4011092F3011092F20113
:100DC0001092F101FF91EF91DF91CF91BF91AF911F
:100DD0009F918F917F916F915F914F913F912F9153
:100DE000FF90EF90DF90CF900F900BBE0F900FBE53
:100DF0000F901F9018958AB387608ABB82B18F7855
:100E000082B98AB785618ABF85B5856085BD89B796
:100E1000806789BF87B7806487BF08958091F1019B
:100E20009091F201892BF1F48091EF019091F00102
:100E30009F938F9383ED91E09F938F93CBD187ED19
:100E400091E0DBD1E091F301F091F401EE0FFF1F8F
:100E5000E05BFE4F0190F081E02D09950F900F901F
:100E60000F900F9008955058BB27AA270ED0E5C0C9
:100E7000D6D030F0DBD020F031F49F3F11F41EF4D7
:100E8000CBC00EF4E095E7FBC1C0E92FE7D080F3BB
:100E9000BA17620773078407950718F071F49EF577
:100EA000FFC00EF4E0950B2EBA2FA02D0B01B90157
:100EB00090010C01CA01A0011124FF27591B99F0D0
:100EC000593F50F4503E68F11A16F040A22F232FDC
:100ED000342F4427585FF3CF469537952795A7952C
:100EE000F0405395C9F77EF41F16BA0B620B730BD3
:100EF000840BBAF09150A1F0FF0FBB1F661F771F44
:100F0000881FC2F70EC0BA0F621F731F841F48F4F8
:100F1000879577956795B795F7959E3F08F0B3CF7E
:100F20009395880F08F09927EE0F97958795089568
:100F300004D06894B111B5C0089598D088F09F5737
:100F400090F0B92F9927B751A0F0D1F0660F771F15
:100F5000881F991F1AF0BA95C9F712C0B13081F0F5
:100F60009FD0B1E008959CC0672F782F8827B85F85
:100F700039F0B93FCCF3869577956795B395D9F756
:100F80003EF490958095709561957F4F8F4F9F4F60
:100F90000895E89409C097FB3EF49095809570956C
:100FA00061957F4F8F4F9F4F9923A9F0F92F96E9B5
:100FB000BB279395F695879577956795B795F1112A
:100FC000F8CFFAF4BB0F11F460FF1BC06F5F7F4FC7
:100FD0008F4F9F4F16C0882311F096E911C07723D9
:100FE00021F09EE8872F762F05C0662371F096E8E2
:100FF000862F70E060E02AF09A95660F771F881FB1
:10100000DAF7880F9695879597F9089597F99F676E
:1010100080E870E060E008959FEF80EC0895002480
:101020000A941616170618060906089500240A944D
:1010300012161306140605060895092E0394000CD3
:1010400011F4882352F0BB0F40F4BF2B11F460FF62
:1010500004C06F5F7F4F8F4F9F4F089557FD90588B
:10106000440F551F59F05F3F71F04795880F97FB6C
:10107000991F61F09F3F79F0879508951216130626
:101080001406551FF2CF4695F1DF08C01616170655
:101090001806991FF1CF869571056105089408958A
:1010A000E894BB2766277727CB0197F908950BD0E3
:1010B000C4CFB5DF28F0BADF18F0952309F0A6CF2A
:1010C000ABCF1124EECFCADFA0F3959FD1F3950FDC
:1010D00050E0551F629FF001729FBB27F00DB11DBC
:1010E000639FAA27F00DB11DAA1F649F6627B00D4C
:1010F000A11D661F829F2227B00DA11D621F739F35
:10110000B00DA11D621F839FA00D611D221F749F42
:101110003327A00D611D231F849F600D211D822F89
:10112000762F6A2F11249F5750408AF0E1F08823D0
:101130004AF0EE0FFF1FBB1F661F771F881F9150DD
:101140005040A9F79E3F510570F060CFAACF5F3F96
:10115000ECF3983EDCF3869577956795B795F79510
:10116000E7959F5FC1F7FE2B880F911D9695879598
:1011700097F9089597FB072E16F4009406D077FD93
:1011800008D014D007FC05D03EF4909581959F4F70
:101190000895709561957F4F0895EE0FFF1F00240D
:1011A000001C0BBE0790F691E02D0994AA1BBB1BF7
:1011B00051E107C0AA1FBB1FA617B70710F0A61B57
:1011C000B70B881F991F5A95A9F780959095BC0178
:1011D000CD010895CF93DF93CDB7DEB7AE014B5F5E
:1011E0005F4FFA0161917191AF01809191039091EC
:1011F000920333D0DF91CF9108950F931F93CF9334
:10120000DF93E0919103F0919203238121FF1BC0B2
:101210008C01D0E0C0E0F80181918F0160919103D1
:1012200070919203DB011896ED91FC911997882338
:1012300031F00995892B79F3DFEFCFEFECCF8AE01E
:101240000995892B19F08FEF9FEF02C08D2F9C2FEE
:10125000DF91CF911F910F9108952F923F924F925E
:101260005F926F927F928F929F92AF92BF92CF9236
:10127000DF92EF92FF920F931F93CF93DF93CDB73F
:10128000DEB72B970FB6F894DEBF0FBECDBF6C0153
:101290007B018A01FC0117821682838181FFBFC115
:1012A000CE0101963C01F6019381F70193FD8591F2
:1012B00093FF81917F01882309F4ADC1853239F410
:1012C00093FD859193FF81917F01853221F4B601D1
:1012D00090E0D6D1E8CF912C212C312CFFE1F315F1
:1012E000D8F08B3279F038F4803279F08332A1F47F
:1012F000232D20611DC08D3261F0803369F4232DD0
:10130000216016C0832D8260382EE32DE4603E2ECE
:101310002AC0F32DF8601DC037FC2DC020ED280F2A
:101320002A3040F08E32B9F436FC75C1232D20648A
:10133000322E19C036FE06C08AE0989E200D112478
:10134000922E11C0EAE02E9E200D1124222EF32DA4
:10135000F0623F2E08C08C3621F4832D8068382E31
:1013600002C0883641F4F70193FD859193FF819186
:101370007F018111B3CF982F9F7D9554933028F42E
:101380000C5F1F4F9FE399830DC0833631F0833785
:1013900071F0833509F055C020C0F8018081898340
:1013A0000E5F1F4F88248394912C530112C0280193
:1013B000F2E04F0E511CF801A080B18036FE03C050
:1013C000692D70E002C06FEF7FEFC5014ED14C0177
:1013D0008201F32DFF773F2E15C0280122E0420E37
:1013E000511CF801A080B18036FE03C0692D70E069
:1013F00002C06FEF7FEFC5012DD14C01F32DF068D6
:101400003F2E820133FC19C0822D90E08816990688
:10141000A0F4B60180E290E033D12A94F5CFF50133
:1014200037FC859137FE81915F01B60190E028D1AC
:1014300021102A9421E0821A91088114910479F7ED
:10144000E1C0843611F0893639F5F80137FE07C05E
:1014500060817181828193810C5F1F4F08C0608120
:101460007181072E000C880B990B0E5F1F4FF32D17
:10147000FF763F2E97FF09C09095809570956195F6
:101480007F4F8F4F9F4FF0683F2E2AE030E0A3013F
:1014900033D1882E861844C0853731F4232D2F7E12
:1014A000B22E2AE030E025C0932D997FB92E8F36D9
:1014B000C1F018F4883579F0AEC0803719F088375C
:1014C00021F0A9C0E92FE061BE2EB4FE0DC0FB2DB6
:1014D000F460BF2E09C034FE0AC0292F2660B22E48
:1014E00006C028E030E005C020E130E002C020E185
:1014F00032E0F801B7FE07C060817181828193817B
:101500000C5F1F4F06C06081718180E090E00E5F2C
:101510001F4FA301F1D0882E8618FB2DFF773F2E99
:1015200036FE0DC0232D2E7FA22E891458F434FED2
:101530000BC032FC09C0832D8E7EA82E05C0B82CAE
:10154000A32C03C0B82C01C0B92CA4FE0FC0FE010F
:10155000E80DF11D8081803321F49A2D997EA92E0A
:1015600009C0A2FE06C0B394B39404C08A2D867845
:1015700009F0B394A3FC10C0A0FE06C0B21480F41E
:10158000280C922C9B180DC0B21458F4B60180E2BE
:1015900090E076D0B394F8CFB21418F42B1802C0B0
:1015A000982C212CA4FE0FC0B60180E390E068D0F7
:1015B000A2FE16C0A1FC03C088E790E002C088E547
:1015C00090E0B6010CC08A2D867851F0A1FE02C0D1
:1015D0008BE201C080E2A7FC8DE2B60190E050D022
:1015E000891430F4B60180E390E04AD09A94F8CFA1
:1015F0008A94F301E80DF11D8081B60190E040D09E
:101600008110F6CF222009F44ECEB60180E290E0A0
:1016100037D02A94F7CFF6018681978102C08FEFE9
:101620009FEF2B960FB6F894DEBF0FBECDBFDF91B4
:10163000CF911F910F91FF90EF90DF90CF90BF90CF
:10164000AF909F908F907F906F905F904F903F9062
:101650002F900895FC010590615070400110D8F75B
:10166000809590958E0F9F1F0895FC0161507040EA
:1016700001900110D8F7809590958E0F9F1F0895C7
:101680000F931F93CF93DF93FB01238121FD03C0B1
:101690008FEF9FEF2CC022FF16C046815781248117
:1016A00035814217530744F4A081B1819D012F5F1A
:1016B0003F4F318320838C93268137812F5F3F4FAB
:1016C0003783268314C08B01EC01FB010084F18574
:1016D000E02D0995892BE1F6D80116968D919C9104
:1016E0001797019617969C938E931697CE01DF91CC
:1016F000CF911F910F910895FA01AA27283051F137
:10170000203181F1E8946F936E7F6E5F7F4F8F4F32
:101710009F4FAF4FB1E03ED0B4E03CD0670F781F91
:10172000891F9A1FA11D680F791F8A1F911DA11D76
:101730006A0F711D811D911DA11D20D009F46894AF
:101740003F912AE0269F11243019305D3193DEF657
:10175000CF010895462F4770405D4193B3E00FD00D
:10176000C9F7F6CF462F4F70405D4A3318F0495DF8
:1017700031FD4052419302D0A9F7EACFB4E0A695DB
:101780009795879577956795BA95C9F700976105FD
:10179000710508959B01AC010A2E06945795479553
:1017A00037952795BA95C9F7620F731F841F951F48
:0817B000A01D0895F894FFCF7D
:1017B8005601620171017F0187018F0197019F0125
:1017C800A701AF01B701BF01CE016400C8002C0119
:1017D8009001F4015802BC0220038403E803B90114
:1017E8004602D503E303F103FE03CC030000000225
:1017F8000000000099040000000001000100010041
:10180800C604D704E8046D616E75616C206D6F6461
:1018180065006175746F6D61746963206D6F6465CF
:10182800007370656564203120286D696E29007326
:1018380070656564203200737065656420330073D9
:1018480070656564203400737065656420350073C5
:1018580070656564203600737065656420370073B1
:10186800706565642038007370656564203900739D
:101878007065656420313020286D617829007374A3
:101888006F700025640A00747269676765720000EA
:00000001FF
