:1000000079C0000095C0000093C0000091C00000BE
:100010008FC00000F2C700000C9441080C948508C2
:1000200087C0000085C00000D1C7000081C000006B
:100030007FC000007DC000007BC0000079C00000D0
:10004000CBC3000075C00000D3C6000071C0000023
:100050006FC000006DC000006BC0000069C00000F0
:1000600067C0000065C0000063C0000061C0000000
:100070005FC000005DC000004DC7000059C0000017
:1000800057C0000055C0000053C0000023025C02AE
:100090004B025C021E025C025C025C025C025C02BF
:1000A0002A025C025C025C025C025C0231025C02BD
:1000B0005C0238025C025C025C025C025C025C0274
:1000C0005C025C025C025C025C025C0223025C0279
:1000D0004B025C021E025C025C025C025C025C027F
:1000E0002A025C025C025C025C025C0231025C027D
:1000F0005C02380211241FBECFEFD0E1DEBFCDBFBE
:1001000012E0A0E0B1E0ECE5F2E100E00BBF02C0DC
:1001100007900D92AA3AB107D9F724E0AAEAB2E013
:1001200001C01D92AD36B207E1F7D3D40C942C096F
:1001300067CFD398089549B321E030E002C0220F81
:10014000331F6A95E2F750E024233523232BB9F0BF
:10015000FC01E655FD4F2081211127C02FEF3DEE18
:1001600042E0215030404040E1F700C00000FC0177
:10017000E655FD4F21E0208380E090E00895FC01EA
:10018000E655FD4F2081213099F42FEF3DEE42E0FE
:10019000215030404040E1F700C00000FC01E6552E
:1001A000FD4F108281E090E0089580E090E0089596
:1001B00080E090E008959FEF94BB8AB3806F8ABB84
:1001C00095BB08958BB38F708BBB0895CF93DF934E
:1001D000EC01F8DF8091AB029091AC028130910587
:1001E00071F01CF4892B39F015C08230910559F05B
:1001F000039769F00FC0DC9A888185BB0BC0DD9A3C
:100200008A8185BB07C0DE9A8C8185BB03C0DF9ADB
:100210008E8185BB8091AB029091AC020196837078
:100220009078992324F401978C6F9F6F0196909397
:10023000AC028093AB02DF91CF9108958093700060
:10024000089584EA80937400E4E7F0E080818823D5
:10025000ECF708958093730084E880937400E4E7DA
:10026000F0E080818823ECF70895CF93DF93D82FB7
:10027000C62FE7DF8D2FEEDF8C2FECDF84E9809334
:100280007400DF91CF910895EF92FF920F931F9327
:10029000CF93DF9300D000D0CDB7DEB7282F207FDB
:1002A00030E1839FC0011124922F9D6099832960C2
:1002B0002A83982F9D609B8389608C838E010F5FBA
:1002C0001F4F7E0185E0E80EF11CF80161918F015E
:1002D0008EE4CBDF0E151F05C1F70F900F900F9026
:1002E0000F90DF91CF911F910F91FF90EF900895A4
:1002F000EF92FF920F931F93CF93DF9300D000D024
:10030000CDB7DEB7282F207F30E1839FC0011124B5
:10031000922F9C60998328602A83982F9C609B83EE
:1003200088608C838E010F5F1F4F7E0185E0E80E91
:10033000F11CF80161918F018EE497DF0E151F0506
:10034000C1F70F900F900F900F90DF91CF911F91F9
:100350000F91FF90EF90089581E0CADF8FE39FE156
:100360000197F1F700C00000089580E197E266DF91
:100370002FEF80E792E0215080409040E1F700C0ED
:10038000000083E3B5DF82E3B3DF88E2B1DF8CE016
:10039000AFDF86E0ADDF81E0ABDF8FE39CE9019763
:1003A000F1F700C0000008950F931F93CF93FC0155
:1003B0008081882351F08F01C0E066DFCF5FF801B4
:1003C000EC0FF11D80818111F8CFCF911F910F911A
:1003D000089581706F7090E4899F600D1124862FBD
:1003E000805886CF0895CF93DF93EA01F2DFCE01E4
:1003F000DBDFDF91CF910895E5E6F0E08081886052
:1004000080830895E5E6F0E08081877F808308950A
:10041000E4E6F0E0808188608083F4CF0895DC0119
:10042000E091C1024E2F50E0FA01E254F109E433A9
:10043000F10508F041C0EA5BFF4FF1C613961C922C
:100440001E92129787C081E090E013969C938E9342
:10045000129780C082E090E013969C938E9312973F
:1004600079C083E090E013969C938E93129772C0AC
:1004700016968D919C91179701968A30910514F0EC
:1004800089E090E017969C938E9316978091C20214
:100490008093C1021EC016968D919C91179701976B
:1004A00012F480E090E017969C938E9316978091BB
:1004B000C2028093C1020DC084E090E013969C9329
:1004C0008E93129784E291E01D969C938E931C97D5
:1004D00023C012962D913C911397C901880F991F43
:1004E000880F991F880F991F8C5F9E4F1D969C93B4
:1004F0008E931C972430310579F01696ED91FC917E
:100500001797EE0FFF1FEC5AFE4F808191811B96CB
:100510009C938E931A970AC080916801909169010B
:100520001B969C938E931A9724E030E016960D90BC
:10053000BC91A02DAA0FBB1FA659BE4F220F331F7F
:10054000F901EA57FE4F0190F081E02D8D919C91C9
:100550000995089512962D913C911397C901880F22
:10056000991F880F991F880F991F8C5F9E4F1D96AA
:100570009C938E931C97C1CFCF93DF93EC011AD637
:100580008A819B819C01275031092230310518F561
:100590002091AD023091AE022F5F3F4F3093AE02FB
:1005A0002093AD02243F314094F4AE81BF81AA0F65
:1005B000BB1FA659BE4F880F991FFC01EA57FE4F7B
:1005C0000190F081E02D8D919C91099504C01092CD
:1005D000AE021092AD028091CD029091CE024A9768
:1005E0009CF08091CF029091D0024A976CF080915C
:1005F000D1029091D2024A973CF089E090E09F832B
:100600008E831B821A82CDC08091CF029091D0023E
:100610004997D4F48091D1029091D2024097A4F0EE
:100620002091CD023091CE028091D1029091D202E0
:10063000281739074CF489E090E09F838E8388E087
:1006400090E09B838A83ADC08091CF029091D002CD
:100650004997D4F48091CD029091CE024097A4F0B6
:100660002091CD023091CE028091D1029091D202A0
:10067000821793074CF489E090E09F838E8387E094
:1006800090E09B838A838DC08091CD029091CE02B1
:100690000A9734F48091D1029091D2020B9764F4BE
:1006A0008091D1029091D2022091CD023091CE0260
:1006B000821B930B40974CF089E090E09F838E83E0
:1006C00083E090E09B838A836CC08091D1029091FB
:1006D000D2020A9734F48091CD029091CE020B970A
:1006E00064F48091CD029091CE022091D10230919C
:1006F000D202821B930B40974CF089E090E09F83DD
:100700008E8382E090E09B838A834BC08091CD02F0
:100710009091CE020597ACF48091CF029091D002D7
:1007200005977CF48091D1029091D20205974CF408
:1007300083E090E09F838E8381E090E09B838A83B7
:1007400030C08091CF029091D00205978CF484E064
:1007500090E09B838A8384E291E09D878C878091DF
:100760006801909169019B878A8784E090E007C0C7
:1007700085E090E09F838E831B821A8212C0AE8137
:10078000BF81AA0FBB1FA659BE4F880F991FFC013E
:10079000EA57FE4F0190F081E02D8D919C910995D3
:1007A00018C08A819B819C01220F331F220F331FA7
:1007B000220F331F2C5F3E4F3D872C87EE81FF8138
:1007C000EE0FFF1FEC5AFE4F208131813B872A87B5
:1007D000D6CFDF91CF9108951F920F920FB60F924F
:1007E00011248F939F9386E082BF8091B5029091F0
:1007F000B60201969093B6028093B5028091B3023F
:100800009091B40201969093B4028093B30281E078
:1008100090E09093B0028093AF029F918F910F90E0
:100820000FBE0F901F90189586E082BF83B784603B
:1008300083BF87B7816087BF0895CF93DF93CDB71C
:10084000DEB762970FB6F894DEBF0FBECDBFECDF08
:1008500041D151D173D344D39AD46BDC86DDABDC68
:100860000FD2D6DD789488E991E090936A04809362
:1008700069041A82198284E090E09C838B8383E070
:1008800090E098878F83ECE4F1E0808191819A87F2
:100890008987868597859C878B8784E291E09E87F0
:1008A0008D878EE496E0988B8F871A8A198AA4DD4B
:1008B00080E090E031D1812C912C0F2EF4E66F2E48
:1008C000712CF02D0CE411E06894EE24E1F8F12C89
:1008D0000F2EF4E0CF2EF1E0DF2EF02D0F2EFBEAED
:1008E0004F2EF6E05F2EF02D0F2EF8EE2F2EF3E0B8
:1008F0003F2EF02DAA24A394B12C8091AF029091A9
:10090000B002892BC1F11092B0021092AF028D8516
:100910009E855CDCEF85F88909958091B502909100
:10092000B602B30169D4892B59F416DD49855A857D
:1009300060E080E058DD4B855C8560E081E053DD60
:1009400069897A8961157105B1F08091B30290913E
:10095000B40252D4892B79F481E0892809F080E02F
:10096000882E912CF401EE0FFF1FE050FF4F0190F5
:10097000F081E02D099563E070E080E090E0DBDB42
:10098000892B09F479C089819A810097D1F4BA82C0
:10099000A9821C821B82F886EF82F80182819381F2
:1009A0009A878987848595859C878B87DE86CD8607
:1009B0008BE796E0988B8F8784EF91E09A8B898BF9
:1009C0005BC081309105B1F4FA82E9821C821B82FE
:1009D000F886EF82F801848195819A8789878485DA
:1009E00095859C878B87DE86CD86588A4F863A8A86
:1009F000298A42C082309105E1F483E090E09A8335
:100A000089831C821B82F886EF82F8018681978198
:100A10009A878987848595859C878B87DE86CD8696
:100A200083E596E0988B8F87ECEDF5E0FA8BE98B08
:100A300023C0039709F583E78093C1021A821982C4
:100A400084E090E09C838B8383E090E098878F83A1
:100A5000F801808191819A878987868597859C870F
:100A60008B8784E291E09E878D87EEE4F6E0F88B39
:100A7000EF871A8A198AC0DCE981FA81EE0FFF1F1D
:100A8000E258FE4F0190F081E02DCE0101960995CC
:100A90008091B5029091B602893E93406CF010921D
:100AA000B6021092B5028091B1029091B202019605
:100AB0009093B2028093B1028091B3029091B402FC
:100AC000813197420CF419CF1092B4021092B30204
:100AD00014CFB3DE8EB583608EBD8FB582608FBDBF
:100AE0008EB588618EBD8FB5806A8FBD8FEF93E024
:100AF00097BD86BD089587B3806687BBE1E6F0E0C9
:100B000080818F608083E2E6F0E08081807F808357
:100B10008081856080830895E2E6F0E08081807FB7
:100B2000808380818F60808308959C01E2E6F0E0FD
:100B30009081907F908390819560908339BD28BD8E
:100B40003BBD2ABD08959C01E2E6F0E09081907FD4
:100B5000908390819A60908339BD28BD3BBD2ABDAA
:100B60000895CF93DF93EC0180E090E0DEDF1BBCC3
:100B70001ABCD9BDC8BDDF91CF910895CF93DF9343
:100B8000EC0180E090E0D1DFDBBDCABD19BC18BC30
:100B9000DF91CF910895CF93DF93EC0180E090E057
:100BA000D2DF8CE291E09BBD8ABDD9BDC8BDDF918B
:100BB000CF910895CF93DF93EC0180E090E0C3DF05
:100BC000DBBDCABD8CE291E099BD88BDDF91CF91BC
:100BD00008959C01E2E6F0E09081907F90839081FF
:100BE0009660908339BD28BD3BBD2ABD08959C0108
:100BF000E2E6F0E09081907F90839081996090830D
:100C000039BD28BD3BBD2ABD08952091BD0230915C
:100C1000BE02121613064CF4215031093093BE0265
:100C20002093BD0283E090E008952091BB023091B3
:100C3000BC02215031093093BC022093BB022F3FEC
:100C40004FEF340759F47093BC026093BB0290934A
:100C500087008093860081E090E00895232B69F45B
:100C60008AE090E09093BE028093BD0210928700CC
:100C70001092860082E090E0089581E090E008956F
:100C8000139A80E480938B008AE080938A0010920C
:100C90008C001092870010928600089510928700B1
:100CA000109286000895CF93DF93C091B902D0913E
:100CB000BA02FE01EE0FFF1FEA55FE4F80819181BF
:100CC00080332FE2920729F41092BA021092B902EF
:100CD0000FC0FE01EE0FFF1FEA58FD4F60817181CA
:100CE00094DF029729F42196D093BA02C093B902F7
:100CF000DF91CF9108958091DE019091DF01181668
:100D0000190634F401979093DF018093DE0114C03B
:100D100088EE93E09093DF018093DE0181E090E024
:100D20002091B7023091B802232B11F080E090E0BF
:100D30009093B8028093B702E091B702F091B802A5
:100D4000EE0FFF1FEA55FD4F808191819093870040
:100D50008093860008958091DC019091DD01181642
:100D6000190634F401979093DD018093DC0137C0BC
:100D700083E090E09093DD018093DC018091DA01C3
:100D80009091DB01892BA9F08091D8019091D90134
:100D900001969093D9018093D8018091860090911B
:100DA00087008F3E9240D8F01092DB011092DA015A
:100DB00016C08091D8019091D90101979093D901E3
:100DC0008093D80180918600909187008C32914069
:100DD00030F481E090E09093DB018093DA01809120
:100DE000D8019091D901909387008093860008954F
:100DF0001F920F920FB60F9211240BB60F922F93E2
:100E00003F934F935F936F937F938F939F93AF9392
:100E1000BF93EF93FF93CF93DF931F92CDB7DEB7CE
:100E20008CB1898389818A3049F52091D302309130
:100E3000D402C90101969093D4028093D302809189
:100E4000BF029091C00248E2429FF001439FF00D23
:100E50001124EB52FD4FE80FF91F10828091D3024D
:100E60009091D4026AE070E0C7D19093D40280934D
:100E7000D3021092C0021092BF021CC06091D30234
:100E80007091D4028091BF029091C0029C012F5FAB
:100E90003F4F3093C0022093BF02498158E2569FD2
:100EA0009001579F300D11242B523D4FF901E80F4F
:100EB000F91F40830F90DF91CF91FF91EF91BF9188
:100EC000AF919F918F917F916F915F914F913F91E2
:100ED0002F910F900BBE0F900FBE0F901F90189583
:100EE000109290008FEC89B9599AE5E9F0E0808181
:100EF000866080838AB188698AB9109266041092EC
:100F000065041092D4021092D30208955D9BFECF27
:100F10008CB908951F920F920FB60F9211248F93E0
:100F20008091C1028093C20280919C008093C10293
:100F30008F910F900FBE0F901F90189510929800F0
:100F40008FEC80939900EBE9F0E0808182608083F0
:100F5000EDE9F0E0808186608083EAE9F0E080815D
:100F600088698083089581E090E09093CA0280931D
:100F7000C902D89885E08A95F1F70000D89A80E5F3
:100F80008A95F1F7D898089581E090E09093CA028D
:100F90008093C902D99885E08A95F1F70000D99A23
:100FA00080E58A95F1F7D998089581E090E09093D3
:100FB000CA028093C902DA9885E08A95F1F70000A9
:100FC000DA9A80E58A95F1F7DA9808951F920F92E0
:100FD0000FB60F9211248F939F938091C502909129
:100FE000C60201969093C6028093C5029F918F918D
:100FF0000F900FBE0F901F9018951F920F920FB673
:101000000F9211248F939F9385E08A95F1F700004A
:101010000C9B06C014BC1092C6021092C5022AC0D6
:1010200084B590E09093C8028093C7028091C50276
:101030009091C6029093C4028093C30218161906B9
:101040003CF48CE291E09093CE028093CD0208C0F4
:101050008091C7029091C8029093CE028093CD02F6
:1010600081E090E09093CC028093CB021092CA0270
:101070001092C9029F918F910F900FBE0F901F90F9
:1010800018951F920F920FB60F9211248F939F9372
:1010900085E08A95F1F700000D9B06C014BC109204
:1010A000C6021092C5022AC084B590E09093C8028F
:1010B0008093C7028091C5029091C6029093C402AA
:1010C0008093C302181619063CF48CE291E09093C9
:1010D000D0028093CF0208C08091C7029091C802CD
:1010E0009093D0028093CF0282E090E09093CC0264
:1010F0008093CB021092CA021092C9029F918F91E5
:101100000F900FBE0F901F9018951F920F920FB661
:101110000F9211248F939F9385E08A95F1F7000039
:101120000E9B06C014BC1092C6021092C50228C0C5
:1011300084B590E09093C8028093C7028091C50265
:101140009091C6029093C4028093C30218161906A8
:101150003CF48CE291E09093D2028093D10208C0DB
:101160008091C7029091C8029093D2028093D102DD
:101170001092CC021092CB021092CA021092C902B5
:101180009F918F910F900FBE0F901F9018958AB36B
:1011900087608ABB82B18F7882B98AB785618ABF3E
:1011A00085B5856085BD89B7806789BF87B780644D
:1011B00087BF08958091C9029091CA02892B89F452
:1011C0001092B2021092B102E091CB02F091CC02E7
:1011D000EE0FFF1FE052FE4F0190F081E02D0995C8
:1011E00008958091B1029091B202049724F0109278
:1011F000CA021092C902089597FB072E16F40094B4
:1012000006D077FD08D014D007FC05D03EF49095A9
:1012100081959F4F0895709561957F4F0895EE0FCA
:10122000FF1F0024001C0BBE0790F691E02D0994CF
:10123000AA1BBB1B51E107C0AA1FBB1FA617B707FC
:1012400010F0A61BB70B881F991F5A95A9F7809518
:0C1250009095BC01CD010895F894FFCFEB
:10125C00FC010202FF008E008E00FF00FF008300E5
:10126C008300FF00C700FF00FF00FF00FF00FF002E
:10127C00FF0088009200FF00FF00FF008300C70002
:10128C00FF00FF00FF00FF0083008800C700C700BD
:10129C00FF00FF00FF00FF0088008800E601F2015C
:1012AC00FB010702140222022A0232023A02420213
:1012BC004A0252025A02620271026400C8002C01F6
:1012CC009001F4015802BC0220038403E8030F02CE
:1012DC00BC02BC02BC029505A305B105BE058C057C
:1012EC00CB05DA05E905F705000000020000000057
:1012FC00860700000000FC04FC0470047004FC046D
:10130C00FC04ED05FC04FC04ED05ED05A706FC044E
:10131C00FC0470047004FC04FC04ED05FC04ED05F5
:10132C00A706ED057707302F2C0101000300E80319
:10133C00B307C407D5076D616E75616C206D6F6462
:10134C006500414D42554C414345004649524520AC
:10135C00454E47494E45004B494E44455247415234
:10136C0054454E007370656564203120286D696E9C
:10137C0029007370656564203200737065656420A4
:10138C003300737065656420340073706565642088
:10139C003500737065656420360073706565642074
:1013AC003700737065656420380073706565642060
:1013BC003900737065656420313020286D6178299F
:1013CC000073746F7000550155015501550155019D
:1013DC005501AA02550155015501550154055501F8
:1013EC0055015501550155015501AA0255015501EB
:0A13FC005501550154056202A802D4
:00000001FF
